:100000000C9434000C9451000C9451000C94510049
:100010000C9451000C9451000C9451000C94C308A2
:100020000C9451000C94EA080C9451000C941C0A96
:100030000C9451000C9451000C9451000C945100FC
:100040000C9451000C9451000C942F080C94080847
:100050000C9456080C9451000C9451000C945100CF
:100060000C9451000C94510011241FBECFEFD8E026
:10007000DEBFCDBF11E0A0E0B1E0E8E0F7E102C0F3
:1000800005900D92A233B107D9F723E0A2E3B1E0C6
:1000900001C01D92A937B207E1F70E9453000C94EA
:1000A000820B0C940000CF93DF9300D01F92CDB74A
:1000B000DEB7209A579A0E94EF0910E06FE7812F70
:1000C0000E9431091F5F1031C9F72FEF81EE94E0D4
:1000D000215080409040E1F700C0000010E060E057
:1000E000812F0E9431091F5F1031C9F78AEA898385
:1000F0008BEB8A838CEC8B83EE24E39400E815E28F
:1001000020E030E040E065E481E00E945E0623E00C
:1001100030E0AE014F5F5F4F61E084E30E940C0668
:100120000E94C1060E94D006FDCF683E23E0720700
:10013000A8F0640F751F6D3E734090F44115510592
:1001400089F0FC01440F551F840F951F1082118206
:100150003296E817F907D1F780E0089581E0089515
:1001600081E0089580E00895CF92DF92EF92FF92B0
:100170000F931F93CF93DF938A01683E33E0730799
:1001800008F473C0AB01400F511F4F32544008F0C8
:100190006EC07B01F8EEEF1AF3E0FF0A21111AC0DE
:1001A0000115110509F465C0FC01660F771FDB011D
:1001B000AE59B640000F111F080F191F9C911196E0
:1001C0002C91119712962083918332960E171F0758
:1001D000A9F751C0213009F050C00115110509F4EB
:1001E0004EC06C01660F771FEB01CE59D640F60169
:1001F000608170E0762F66278181682B69937993FF
:10020000F0E2EF16F104F4F4C701019680FD20C07E
:10021000970121503109C90199230CF40196959554
:1002200087959B012227232B29F0672F6F770E9448
:1002300031090EC0FE013497408151816F770E94D1
:10024000420906C030E2E316F10411F40E94EF09FE
:100250008FEFE81AF80A01501109E2E0CE0ED11C26
:100260000115110521F680E00BC081E009C081E095
:1002700007C080E005C080E003C080E001C080E0EE
:10028000DF91CF911F910F91FF90EF90DF90CF9072
:10029000089581E0089581E008950F93862FBA01B3
:1002A000A901F8949AE09093BE0128E00E94BC074F
:1002B000813041F480E29EE40E946108813021F0A7
:1002C00083E003C083E001C080E078940F9108953B
:1002D000F89460E081E00E949D071092C601789436
:1002E00080E00E9488070895F89460E080E00E9412
:1002F0009D070E94B50878940895CF93DF93EC0191
:10030000F8942091C4013091C5012330310520F1CA
:10031000A091C401B091C501109761F0E9E7F2E046
:10032000A758BD4F90E02191920FEA17FB07D9F72C
:10033000911114C08091790288838091C4019091B9
:10034000C5010297FA01918380838AE792E0FB015D
:100350009183808380E003C085E001C085E07894CC
:10036000DF91CF910895F8949091C601911142C008
:10037000FB013197F093C201E093C10121E030E02D
:100380003093C0012093BF0180838091BF01909181
:10039000C001480F591F5093C0014093BF012091E5
:1003A000BF013091C001C9010197232B49F0680FAB
:1003B000791F80E09191890FE617F707D9F701C0FF
:1003C00080E081952091BF013091C001A9014F5F6C
:1003D0005F4F5093C0014093BF01F901E758FD4FB3
:1003E000808381E08093C70161E080E00E949D07E7
:1003F00080E001C085E078940895CF93DF931F9249
:10040000CDB7DEB7CE0101960E9402088091C601E9
:10041000813031F008F47DC0823009F45AC089C0BF
:100420000E94820889818A3341F41092C30110929C
:10043000C5011092C40180E081C08D3029F482E0B2
:100440008093C60180E07AC090ED980F9A3040F01A
:100450009FEB980F963018F499EC980F01C09FEF1E
:100460008091C301882319F08130E9F064C02091A4
:10047000C4013091C5012F3F310509F070F4E091BE
:10048000C401F091C501E758FD4F9295907F90838C
:1004900081E08093C30180E051C01092C6010E94A8
:1004A000B50880E04BC0E091C401F091C501E75868
:1004B000FD4F8081982B90838091C4019091C5015C
:1004C00001969093C5018093C4011092C30180E00E
:1004D00035C089819091BE01891308C00E94B5087A
:1004E0001092C60181E00E94880728C08A3369F40F
:1004F0001092C3011092C5011092C40181E0809353
:10050000C6010E94820880E019C01092C60180E0F6
:1005100015C089818A3389F40E9482081092C5012E
:100520001092C4011092C30181E08093C60180E063
:1005300005C080E003C080E001C080E00F90DF9143
:10054000CF910895CF938091C7018230C1F030F4EC
:10055000882309F482C0813041F085C0833009F4DA
:1005600066C0843009F46CC07EC08AE30E94FE0736
:1005700082E08093C7011092C301C0E077C08091F0
:10058000BF019091C001892B09F449C08091C3013A
:10059000882319F08130D1F068C0E091C101F09159
:1005A000C201808182958F708A3010F4805D07C00F
:1005B00096EF980F963010F4895C01C080E30E949A
:1005C000FE0781E08093C301C0E050C0E091C1010B
:1005D000F091C20180818F708A3010F4805D07C075
:1005E00096EF980F963010F4895C01C080E30E946A
:1005F000FE078091C1019091C20101969093C201C2
:100600008093C1011092C3018091BF019091C001FC
:1006100001979093C0018093BF01C0E027C08DE097
:100620000E94FE0783E08093C701C0E01FC0809155
:10063000BE010E94FE0784E08093C701C0E016C09F
:100640001092C70183E00E948807C82F60E081E014
:100650000E949D071092C70109C060E081E00E94DE
:100660009D07C0E003C0C0E001C0C0E08C2FCF9167
:1006700008958091C6018150823010F41092C60115
:100680000E94B50880E008951F93CF93DF93DB01AC
:100690002D913C912530310509F057C0FC01438173
:1006A00050E0542F44272481422B9A0121503109D4
:1006B0002F3C374008F04BC0DC0111963C9111975C
:1006C00012962C911297FB0111821082E1E0EC93BB
:1006D000DB01ED91FC9111973196ED93FC93FA01BA
:1006E000E770FF27EF2B51F0FA01F695E795F695A5
:1006F000E795F695E79511E01E0F08C0FA01F6950B
:10070000E795F695E795F695E7951E2FEB01FC0129
:100710001183688179816F5F7F4F79836883622F4E
:1007200070E0732B6F5F7F4F20E002960E944901BB
:10073000882319F00E9450060BC088819981810F8F
:10074000911D9983888380E003C083E001C083E02A
:10075000DF91CF911F910895CF93DF9300D0CDB754
:10076000DEB7FB01208131812530310511F5FC0117
:100770002481211120C023813FEF320F3E3FE8F05A
:10078000318162811A822F3F19F481E0898301C08F
:10079000198270E0732B6F5F7F4F21E041E050E0E2
:1007A000CE0101960E944901882349F00E9450061B
:1007B00007C083E005C083E003C083E001C080E0A0
:1007C0000F900F90DF91CF910895CF93DF93FB01AE
:1007D0002081318126303105E8F1FC01438150E070
:1007E000542F44272481422B9A0127703327232B2F
:1007F00049F09A0136952795369527953695279590
:100800002F5F07C09A01369527953695279536951F
:100810002795FA013197E03BF740F0F4FC01358170
:1008200023131CC0EB01618170E0762F66272281C3
:10083000622B6F5F7F4F21E006960E94490188235B
:1008400019F00E9450060BC085E090E099838883E0
:1008500080E005C083E003C083E001C083E0DF9156
:10086000CF9108951F93CF93DF93DB012D913C919E
:100870002530310509F056C0FC01438150E0542F6A
:1008800044272481422B9A01215031092F3C3740C3
:1008900008F04AC0DC0111963C91119712962C91F8
:1008A0001297FB0111821082E2E0EC93DB01ED91E3
:1008B000FC9111973196ED93FC93FA01E770FF27B5
:1008C000EF2B51F0FA01F695E795F695E795F69539
:1008D000E79511E01E0F08C0FA01F695E795F69529
:1008E000E795F695E7951E2FEB01FC0111836881D2
:1008F00079816F5F7F4F79836883622F70E0732BFC
:100900006F5F7F4F02960E944B01882319F00E946F
:1009100050060BC088819981810F911D998388832E
:1009200080E003C083E001C083E0DF91CF911F919D
:100930000895FB012081318125303105A1F4FC01AE
:10094000618170E0762F66272281622B6F5F7F4F77
:1009500021E041E050E003960E94B400882329F092
:100960000E945006089583E0089580E00895CF9393
:10097000DF93FB01208131812630310550F1FC01EC
:10098000438150E0542F44272481422B9A01215067
:10099000310928373105F8F43581242F220F32131D
:1009A0001CC0EB01618170E0762F66272281622BEB
:1009B0006F5F7F4F21E006960E94B400882319F0F4
:1009C0000E9450060BC085E090E09983888380E008
:1009D00005C083E003C083E001C083E0DF91CF91D5
:1009E00008950F931F93CF93DF93FB0120813181F3
:1009F00025303105B1F5FC012481022F10E0A8015A
:100A0000415051094D37510570F5EB01318162813B
:100A10001982188283E08083888199810196998365
:100A20008883220F21838881998101969983888305
:100A300070E0732B6F5F7F4F20E0A801CF0102961B
:100A40000E94B400882319F00E9450060DC0000FC8
:100A5000111F88819981080F191F1983088380E06D
:100A600003C083E001C083E0DF91CF911F910F911C
:100A70000895CF92DF92EF92FF920F931F93CF933F
:100A8000DF93FB01208131812A30310508F466C0F3
:100A9000FC01C381D0E0DC2FCC272481C22B9E0136
:100AA000215031092D37310508F05AC0478150E0F7
:100AB000542F44272085422B9A0121503109293790
:100AC000310508F04FC0218530E0FA01EE0FFF1F1D
:100AD000E217F30709F048C08B017C01FC01C180DB
:100AE000D280658170E0762F66278681682B6F5FE4
:100AF0007F4F21E0C7010A960E94B400811136C0E1
:100B0000F8011182108287E1F7018083F80180816A
:100B100091810196918380838C2F880FF7018183C7
:100B2000F801808191810196918380836D2D70E021
:100B30007C296F5F7F4F20E0AE01C70102960E94C3
:100B4000B400811113C0CC0FDD1FF80180819181A9
:100B50008C0F9D1F9183808380E00AC080E008C0D5
:100B600083E006C083E004C083E002C00E94500618
:100B7000DF91CF911F910F91FF90EF90DF90CF9079
:100B800008950F931F93CF93DF93FB012081318151
:100B900025303105C9F5FC01038110E0102F002735
:100BA0002481022B9801215031092C37310570F531
:100BB000EB01218162811982188284E0808388811F
:100BC0009981019699838883802F880F81838881FA
:100BD000998101969983888370E0722B6F5F7F4FB4
:100BE000A801CF0102960E949500882319F00E9467
:100BF00050060DC0000F111F88819981080F191F21
:100C00001983088380E003C083E001C083E0DF91A3
:100C1000CF911F910F910895CF93DF93E901229611
:100C2000C032D105F0F48093CA0182E090E0909345
:100C3000C9018093C80181E0611101C080E0819504
:100C40008093CB012115310571F0BA01A9018CEC1B
:100C500091E00E94790BD093C901C093C80180E054
:100C600003C084E001C080E0DF91CF9108950F932D
:100C70001F93CF93DF938B01C091C801D091C9011D
:100C8000AE016AEC71E001960E94790B2196F801A1
:100C9000D183C08380E0DF91CF911F910F910895A0
:100CA000813021F048F0873019F004C082E00895C7
:100CB00086E0089584E0089580E00895CF92DF9261
:100CC000EF92FF920F931F93CF939FEF960F973F53
:100CD00008F04BC05E2D68017901742F962F609348
:100CE00001028130B9F528E631E03093FE0120930E
:100CF000FD0124E731E03093FC012093FB0123EB5D
:100D000031E0309300022093FF012DE731E0309372
:100D1000FA012093F9011092F8011092F7012DEFDA
:100D200031E03093F6012093F50122EA32E030936E
:100D3000F4012093F30129E333E03093F20120938F
:100D4000F101052FA7019601672F892F0E944D0100
:100D5000C82F01C0C2E0C1110BC00E9484078823C4
:100D600031F081E08093300103C0C2E001C0C3E0F4
:100D70008C2FCF911F910F91FF90EF90DF90CF902C
:100D8000089580913001813049F4E091FD01F091A6
:100D9000FE0109951092300180E0089586E00895E3
:100DA000CF93DF931F92CDB7DEB7809130018111D1
:100DB00099C0CE0101960E948F07813009F094C03E
:100DC0008981813019F08230D9F090C0E091F90129
:100DD000F091FA014CEE51E06EEE71E080EF91E09F
:100DE0000995811185C08091F001909101028917C8
:100DF00011F081117FC082E00E94880780E080C0EE
:100E0000A091EE01B091EF014C914093EB0181E094
:100E10008093EA0190910001992309F46DC049176C
:100E200059F0E3E0F1E021E030E09081992309F40A
:100E300063C049131AC002C020E030E0F901EE0F90
:100E4000FF1F2E0F3F1FF901E050FF4F0180F2817D
:100E5000E02D6CEE71E0CD0109958093EA0190914F
:100E6000F001911109C080E04BC02F5F3F4F3396D6
:100E700020313105D1F640C0882319F101C081E04D
:100E8000E091EE01F091EF0121E030E03093ED01CF
:100E90002093EC019091EB01906890834091EE01DA
:100EA0005091EF012091EC013091ED01B9016F5F9C
:100EB0007F4F7093ED016093EC01FA01E20FF31F95
:100EC00080834091EC015091ED016091EE017091B1
:100ED000EF01E091FF01F09100028091010209957C
:100EE00080E00EC086E00CC080E00AC080E008C050
:100EF00080E006C080E004C08091F0018111BFCF86
:100F00000F90DF91CF9108951092020281E0089531
:100F100091E0909302028093030281E00895FC0126
:100F200090910202992339F08091030280831092FC
:100F3000020281E0089580E00895E1ECF0E0908104
:100F400098649083882321F080818069808305C024
:100F5000E1ECF0E080818F768083662339F0E1EC6C
:100F6000F0E08081886280835D9A0895E1ECF0E092
:100F700080818F7D808308950F93CF93C22FDB01F3
:100F8000CA01880F991FAA1FBB1F880F991FAA1F8C
:100F9000BB1F9C01AD01220F331F441F551F220FA1
:100FA000331F441F551F60E074E284EF90E00E94FD
:100FB000480B215031093093C5002093C400013003
:100FC00021F0023021F490E203C090E301C090E0F0
:100FD000C73021F0C83019F4966001C09460E2EC8B
:100FE000F0E08081892B808360E080E00E949D0793
:100FF000559A5D9881E0CF910F9108958093C60036
:1010000081E008952091C600FC01208381E00895CD
:101010001F920F920FB60F9211242F933F934F936D
:101020005F936F937F938F939F93AF93BF93EF9350
:10103000FF93E091F301F091F4010995FF91EF9195
:10104000BF91AF919F918F917F916F915F914F91E0
:101050003F912F910F900FBE0F901F9018951F92E8
:101060000F920FB60F9211242F933F934F935F93DC
:101070006F937F938F939F93AF93BF93EF93FF9360
:10108000E091F501F091F6010995FF91EF91BF9183
:10109000AF919F918F917F916F915F914F913F9110
:1010A0002F910F900FBE0F901F9018951F920F92C7
:1010B0000FB60F9211245D980F900FBE0F901F90E6
:1010C00018959C01A9E0BDE30E946A0B20E23EE472
:1010D00040E050E00E94480B309307022093060244
:1010E0001092B000E1EBF0E010828081887F808375
:1010F000E0E7F0E080818C7F808387B3836087BBEB
:1011000081E00895109205021092B20080910702CA
:10111000882389F0E0E7F0E080818160808380812E
:101120008D7F808380910702809304028091060264
:101130008093B30014C080910602882381F0E0E719
:10114000F0E080818260808380818E7F80838091C7
:10115000070280930402809106028093B300E1EBC2
:10116000F0E08081876080830895E1EBF0E080818A
:10117000887F8083E0E7F0E080818C7F808387B385
:10118000836087BB08951F920F920FB60F921124B0
:101190002F933F934F935F936F937F938F939F937F
:1011A000AF93BF93EF93FF93E091F101F091F201C0
:1011B0000995FF91EF91BF91AF919F918F917F9191
:1011C0006F915F914F913F912F910F900FBE0F90B4
:1011D0001F9018951F920F920FB60F9211242F9304
:1011E0003F934F935F936F937F938F939F93AF93AF
:1011F000BF93EF93FF93809105028F5F8093050269
:10120000909104028917E0F0891315C0E0E7F0E03F
:10121000808182608083809106028093B300A1EB7D
:10122000B0E08C91887F8C9380818E7F808387B3A0
:10123000836087BB05C0E091F101F091F20109954F
:10124000FF91EF91BF91AF919F918F917F916F919E
:101250005F914F913F912F910F900FBE0F901F9074
:101260001895803170F4662364F090E0FC01E75E2D
:10127000FD4F1082FC01E759FD4F608381E08093B0
:1012800008020895AF92BF92CF92DF92EF92FF9241
:101290000F931F93CF93803108F08FC066230CF417
:1012A0008FC0082F10E0F801E759FD4F9081E62F1D
:1012B000E91B09F488C0C62FF82F9A0132952295B0
:1012C0002F7023273F7023272115310529F40E9411
:1012D000310980E090E079C0EE2E0E2E000CFF0860
:1012E0006701FF2024F4CC24DD24CE18DF08C901D7
:1012F000B6010E94200B6131710538F096012295EC
:101300003295307F3227207F3227C701B9010E94F2
:10131000340B462F611105C0EE2314F041E001C0EB
:101320004FEFA42E042E000CBB082A9DC0012B9D5C
:10133000900D3A9D900D1124B7010E94340B262F79
:10134000611101C021E0C22ED12CEC9CC001ED9CAA
:10135000900DFC9C900D1124B5010E94340BCB0123
:10136000B6010E94200B611107C06C2F8F2F0E94C5
:10137000310980E090E029C0D801A75EBD4F1C92E2
:10138000F801E75BFD4F4083F801E75CFD4F2083E8
:10139000F801E75DFD4F2083F801E75FFD4FC08353
:1013A0006C936C9DC0016D9D900D1124829592955A
:1013B000907F9827807F982708C08FEF9FEF05C008
:1013C0008EEF9FEF02C080E090E0CF911F910F91D0
:1013D000FF90EF90DF90CF90BF90AF900895109264
:1013E0006F0080E090E0FC01E75AFD4F1082FC01A5
:1013F000E759FD4F1082FC01E75EFD4F1082019618
:101400008031910581F780E8809331018FE384B9C1
:1014100087B98AB1806F8AB980ED97E0909389008F
:10142000809388001092800089E08093810082E0A0
:1014300080936F00789408951F920F920FB60F92C9
:1014400011242F933F934F938F939F93AF93BF9309
:10145000EF93FF9380913101815009F451C0909135
:101460005902891301C0459A90915A02891301C00B
:10147000449A90915B02891301C0439A90915C0257
:10148000891301C0429A90915D02891301C0419A6B
:1014900090915E02891301C0409A90915F02891376
:1014A00001C02D9A90916002891301C02C9A9091ED
:1014B0006102891301C02B9A90916202891301C0C5
:1014C0002A9A90916302891301C0299A909164022B
:1014D000891301C05C9A90916502891301C0289A12
:1014E00090916602891301C05F9A909167028913F7
:1014F00001C05E9A90916802891350C05D9A4EC0F7
:1015000015B818B88BB18F708BB9809108028823F9
:1015100009F486C010920802A9E6B2E08C91E9E5D0
:10152000F2E0808311968C911197818312968C91B1
:101530001297828313968C911397838314968C91C0
:101540001497848315968C911597858316968C91A4
:101550001697868317968C911797878318968C9188
:101560001897808719968C91199781871A968C9174
:101570001A9782871B968C911B9783871C968C9158
:101580001C9784871D968C911D9785871E968C913C
:101590001E9786871F968C91878742C0982F9770D9
:1015A000E1F5282F269526952695215030E0F90162
:1015B000E75EFD4F9081992381F1F901E75DFD4FD1
:1015C0009081915090839081911127C0F901E75C3F
:1015D000FD4F9081F901E75DFD4F9083F901E75ED2
:1015E000FD4F9081915090839081992359F0F9019A
:1015F000E75BFD4F4081F901E759FD4F9081940F62
:10160000908308C0F901E75FFD4F9081F901E75928
:10161000FD4F908391E0909308028093310102C0C6
:1016200080E8BFCFFF91EF91BF91AF919F918F91D4
:101630004F913F912F910F900FBE0F901F901895D3
:10164000AA1BBB1B51E107C0AA1FBB1FA617B707E8
:1016500010F0A61BB70B881F991F5A95A9F7809504
:101660009095BC01CD01089597FB072E16F40094C8
:1016700007D077FD09D00E94200B07FC05D03EF46F
:10168000909581959F4F0895709561957F4F08952E
:10169000A1E21A2EAA1BBB1BFD010DC0AA1FBB1F76
:1016A000EE1FFF1FA217B307E407F50720F0A21BE8
:1016B000B30BE40BF50B661F771F881F991F1A9455
:1016C00069F760957095809590959B01AC01BD017F
:1016D000CF010895A29FB001B39FC001A39F700DD9
:1016E000811D1124911DB29F700D811D1124911D2A
:1016F0000895FB01DC0102C001900D924150504061
:08170000D8F70895F894FFCF1B
:1017080011370604C10503F10410B704069904173C
:10171800390501440305AC030FE503023204000058
:1017280000000000000000000000000000000000B1
:0217380002802D
:00000001FF
