:100000000C9435000C945D000C945D000C945D0024
:100010000C945D000C945D000C945D000C948909B7
:100020000C945D000C94B0090C945D000C94050BCD
:100030000C945D000C945D000C945D000C945D00CC
:100040000C94AC0C0C945D000C94F5080C94CE0848
:100050000C941C090C945D000C945D000C945D00E4
:100060000C945D000C945D00FD0311241FBECFEFC6
:10007000D8E0DEBFCDBF11E0A0E0B1E0E8EEFCE1EA
:1000800002C005900D92A233B107D9F723E0A2E395
:10009000B1E001C01D92AB38B207E1F710E0C5E353
:1000A000D0E004C02197FE010E94630EC433D10743
:1000B000C9F70E9456020C94720E0C9400000F9324
:1000C000862FBA01A901F8949AE09093320128E0B2
:1000D0000E948208813041F480E29EE40E94270958
:1000E000813021F083E003C083E001C080E0789498
:1000F0000F910895F89460E081E00E9463081092E7
:100100003A01789480E00E944E080895F89460E0E7
:1001100080E00E9463080E947B0978940895CF9341
:10012000DF93EC01F89420913801309139012330AC
:10013000310520F1A0913801B0913901109761F09B
:10014000EBE8F2E0A557BD4F90E02191920FEA173E
:10015000FB07D9F7911114C080918B02888380919D
:100160003801909139010297FA01918380838CE8DC
:1001700092E0FB019183808380E003C085E001C0B1
:1001800085E07894DF91CF910895F89490913A01A9
:10019000911142C0FB013197F0933601E093350194
:1001A00021E030E03093340120933301808380914B
:1001B000330190913401480F591F509334014093FB
:1001C00033012091330130913401C9010197232B70
:1001D00049F0680F791F80E09191890FE617F707C2
:1001E000D9F701C080E0819520913301309134012D
:1001F000A9014F5F5F4F5093340140933301F901E0
:10020000E557FD4F808381E080933B0161E080E012
:100210000E94630880E001C085E078940895CF9340
:10022000DF931F92CDB7DEB7CE0101960E94C808BA
:1002300080913A01813031F008F47DC0823009F4B8
:100240005AC089C00E94480989818A3341F41092BA
:100250003701109239011092380180E081C08D3051
:1002600029F482E080933A0180E07AC090ED980F03
:100270009A3040F09FEB980F963018F499EC980F55
:1002800001C09FEF80913701882319F08130E9F098
:1002900064C020913801309139012F3F310509F0B8
:1002A00070F4E0913801F0913901E557FD4F9295D6
:1002B000907F908381E08093370180E051C010925D
:1002C0003A010E947B0980E04BC0E0913801F09137
:1002D0003901E557FD4F8081982B9083809138013B
:1002E00090913901019690933901809338011092D1
:1002F000370180E035C0898190913201891308C0AF
:100300000E947B0910923A0181E00E944E0828C0A9
:100310008A3369F410923701109239011092380132
:1003200081E080933A010E94480980E019C0109250
:100330003A0180E015C089818A3389F40E94480916
:1003400010923901109238011092370181E08093A8
:100350003A0180E005C080E003C080E001C080E099
:100360000F90DF91CF910895CF9380913B01823020
:10037000C1F030F4882309F482C0813041F085C097
:10038000833009F466C0843009F46CC07EC08AE30F
:100390000E94C40882E080933B0110923701C0E0C4
:1003A00077C08091330190913401892B09F449C0C1
:1003B00080913701882319F08130D1F068C0E09135
:1003C0003501F0913601808182958F708A3010F46A
:1003D000805D07C096EF980F963010F4895C01C0DD
:1003E00080E30E94C40881E080933701C0E050C0E0
:1003F000E0913501F091360180818F708A3010F4E0
:10040000805D07C096EF980F963010F4895C01C0AC
:1004100080E30E94C40880913501909136010196D5
:10042000909336018093350110923701809133010A
:100430009091340101979093340180933301C0E08F
:1004400027C08DE00E94C40883E080933B01C0E098
:100450001FC0809132010E94C40884E080933B0158
:10046000C0E016C010923B0183E00E944E08C82FE6
:1004700060E081E00E94630810923B0109C060E0E7
:1004800081E00E946308C0E003C0C0E001C0C0E09A
:100490008C2FCF91089580913A018150823010F4D1
:1004A00010923A010E947B0980E00895CF93DF9378
:1004B00000D01F92CDB7DEB70E94B50A789410E045
:1004C0006FE7812F0E94F7091F5F1031C9F72FEFE7
:1004D00081EE94E0215080409040E1F700C00000A0
:1004E00010E060E0812F0E94F7091F5F1031C9F70B
:1004F0002FEF81EE94E0215080409040E1F700C062
:10050000000010E06FE7812F0E94F7091F5F103194
:10051000C9F78AEA89838BEB8A838CEC8B83EE2480
:10052000E39400E815E220E030E040E065E481E09B
:100530000E94240723E030E0AE014F5F5F4F61E08F
:1005400084E30E94D20678940E9487070E9496074F
:10055000FDCF683E23E07207A8F0640F751F6D3E63
:10056000734090F44115510589F0FC01440F551F6B
:10057000840F951F108211823296E817F907D1F780
:1005800080E0089581E0089581E0089580E0089575
:100590002F923F924F925F926F927F928F929F9293
:1005A000AF92BF92CF92DF92EF92FF920F931F9381
:1005B000CF93DF935A01683E33E0730708F4FBC022
:1005C000AB014A0D5B1D4032544008F0F6C06B0190
:1005D000F8EECF1AF3E0DF0A21111AC0A114B1041A
:1005E00009F4EDC0FC01660F771FDB01A456B6408D
:1005F000AA0CBB1CA80EB91E8C9111969C91119748
:100600001296908381833296EA15FB05A9F7D9C02B
:10061000213009F0D8C0A114B10409F4D6C03C01BE
:10062000660F771FEB01C456D6400F2EF4EC8F2EC9
:10063000F1E09F2EF02D0F2EF6EC4F2EF1E05F2E05
:10064000F02D0F2EF8EC2F2EF1E03F2EF02DF301C0
:10065000608170E0762F66278181682B699379939A
:10066000F0E2CF16D104F4F4C601019680FD94C0E7
:10067000960121503109C90199230CF401969595F1
:1006800087959B012227232B29F0672F6F770E94E4
:10069000F70982C0FE013497408151816F770E9433
:1006A000080A7AC020E2C216D10419F40E94B50AE1
:1006B00073C031E2C316D10469F4672B09F45B9867
:1006C000EEEAF1E08081918181159A4F09F064C0D2
:1006D0005B9A62C026E2C216D104A9F4E0EBF1E015
:1006E000E080F180E2EBF1E000811181E4EBF1E0E8
:1006F00020813181E6EBF1E0408151818CE591E090
:100700000E947D0C49C0FBE2CF16D104A9F4EAEBAC
:10071000F1E0E080F180ECEBF1E000811181EEEBA3
:10072000F1E020813181E0ECF1E0408151818CE405
:1007300091E00E947D0C30C0F0E3CF16D10491F41B
:10074000F401E080F180F20100811181F10120814A
:100750003181EAECF1E0408151818CE391E00E942B
:100760007D0C1AC0F1E3CF16D10429F48CE591E099
:100770000E94180C11C022E3C216D10429F48CE4A3
:1007800091E00E94180C08C033E3C316D10421F491
:100790008CE391E00E94180C8FEFC81AD80AE1E0B0
:1007A000AE1AB108F2E06F0E711CA114B10409F089
:1007B0004ECF80E00BC081E009C081E007C080E03F
:1007C00005C080E003C080E001C080E0DF91CF91F0
:1007D0001F910F91FF90EF90DF90CF90BF90AF905F
:1007E0009F908F907F906F905F904F903F902F9051
:1007F000089581E0089581E008958CE591E00E94DC
:10080000090C8CE491E00E94090C8CE391E00E94B9
:10081000090C08951F93CF93DF93DB012D913C9139
:100820002530310509F057C0FC01438150E0542FB9
:1008300044272481422B9A01215031092F3C374013
:1008400008F04BC0DC0111963C91119712962C9147
:100850001297FB0111821082E1E0EC93DB01ED9134
:10086000FC9111973196ED93FC93FA01E770FF2705
:10087000EF2B51F0FA01F695E795F695E795F69589
:10088000E79511E01E0F08C0FA01F695E795F69579
:10089000E795F695E7951E2FEB01FC011183688122
:1008A00079816F5F7F4F79836883622F70E0732B4C
:1008B0006F5F7F4F20E002960E94F903882319F0B2
:1008C0000E9416070BC088819981810F911D998321
:1008D000888380E003C083E001C083E0DF91CF9193
:1008E0001F910895CF93DF9300D0CDB7DEB7FB0102
:1008F000208131812530310511F5FC012481211140
:1009000020C023813FEF320F3E3FE8F0318162810A
:100910001A822F3F19F481E0898301C0198270E0A7
:10092000732B6F5F7F4F21E041E050E0CE010196D5
:100930000E94F903882349F00E94160707C083E04C
:1009400005C083E003C083E001C080E00F900F90FA
:10095000DF91CF910895CF93DF93FB012081318107
:1009600026303105E8F1FC01438150E0542F442743
:100970002481422B9A0127703327232B49F09A01B7
:100980003695279536952795369527952F5F07C07D
:100990009A01369527953695279536952795FA012C
:1009A0003197E03BF740F0F4FC01358123131CC084
:1009B000EB01618170E0762F66272281622B6F5FE9
:1009C0007F4F21E006960E94F903882319F00E94C8
:1009D00016070BC085E090E09983888380E005C00E
:1009E00083E003C083E001C083E0DF91CF910895ED
:1009F0001F93CF93DF93DB012D913C91253031057F
:100A000009F056C0FC01438150E0542F4427248153
:100A1000422B9A01215031092F3C374008F04AC03F
:100A2000DC0111963C91119712962C911297FB01C3
:100A300011821082E2E0EC93DB01ED91FC911197C1
:100A40003196ED93FC93FA01E770FF27EF2B51F0FD
:100A5000FA01F695E795F695E795F695E79511E095
:100A60001E0F08C0FA01F695E795F695E795F695FD
:100A7000E7951E2FEB01FC011183688179816F5F7F
:100A80007F4F79836883622F70E0732B6F5F7F4F96
:100A900002960E94FB03882319F00E9416070BC0E0
:100AA00088819981810F911D9983888380E003C09B
:100AB00083E001C083E0DF91CF911F910895FB0196
:100AC0002081318125303105A1F4FC01618170E084
:100AD000762F66272281622B6F5F7F4F21E041E0F6
:100AE00050E003960E94C802882329F00E9416074E
:100AF000089583E0089580E00895CF93DF93FB018C
:100B0000208131812630310550F1FC01438150E0D4
:100B1000542F44272481422B9A0121503109283730
:100B20003105F8F43581242F220F32131CC0EB015C
:100B3000618170E0762F66272281622B6F5F7F4F85
:100B400021E006960E94C802882319F00E94160729
:100B50000BC085E090E09983888380E005C083E046
:100B600003C083E001C083E0DF91CF9108950F932C
:100B70001F93CF93DF93FB01208131812530310515
:100B8000B1F5FC012481022F10E0A8014150510968
:100B90004D37510570F5EB01318162811982188260
:100BA00083E0808388819981019699838883220FCD
:100BB00021838881998101969983888370E0732BC2
:100BC0006F5F7F4F20E0A801CF0102960E94C8020C
:100BD000882319F00E9416070DC0000F111F88818D
:100BE0009981080F191F1983088380E003C083E0EF
:100BF00001C083E0DF91CF911F910F910895CF92B3
:100C0000DF92EF92FF920F931F93CF93DF93FB013D
:100C1000208131812A30310508F466C0FC01C3818E
:100C2000D0E0DC2FCC272481C22B9E01215031093A
:100C30002D37310508F05AC0478150E0542F442722
:100C40002085422B9A01215031092937310508F0BE
:100C50004FC0218530E0FA01EE0FFF1FE217F307C6
:100C600009F048C08B017C01FC01C180D280658104
:100C700070E0762F66278681682B6F5F7F4F21E0BB
:100C8000C7010A960E94C802811136C0F80111827C
:100C9000108287E1F7018083F801808191810196BC
:100CA000918380838C2F880FF7018183F8018081E5
:100CB00091810196918380836D2D70E07C296F5F17
:100CC0007F4F20E0AE01C70102960E94C802811149
:100CD00013C0CC0FDD1FF801808191818C0F9D1F07
:100CE0009183808380E00AC080E008C083E006C072
:100CF00083E004C083E002C00E941607DF91CF9119
:100D00001F910F91FF90EF90DF90CF9008950F9378
:100D10001F93CF93DF93FB01208131812530310573
:100D2000C9F5FC01038110E0102F00272481022B5C
:100D30009801215031092C37310570F5EB012181E3
:100D400062811982188284E080838881998101966A
:100D500099838883802F880F818388819981019668
:100D60009983888370E0722B6F5F7F4FA801CF015A
:100D700002960E94A902882319F00E9416070DC04E
:100D8000000F111F88819981080F191F198308838B
:100D900080E003C083E001C083E0DF91CF911F9129
:100DA0000F910895CF93DF93E9012296C032D105C8
:100DB000F0F48093DC0182E090E09093DB0180937B
:100DC000DA0181E0611101C080E081958093DD014D
:100DD0002115310571F0BA01A9018EED91E00E9453
:100DE000690ED093DB01C093DA0180E003C084E098
:100DF00001C080E0DF91CF9108950F931F93CF93AF
:100E0000DF938B01C091DA01D091DB01AE016CED73
:100E100071E001960E94690E2196F801D183C0838A
:100E200080E0DF91CF911F910F910895813021F0E3
:100E300048F0873019F004C082E0089586E00895F4
:100E400084E0089580E00895CF92DF92EF92FF92C0
:100E50000F931F93CF939FEF960F973F08F04BC0D0
:100E60005E2D68017901742F962F609313028130F3
:100E7000B9F52AE730E03093100220930F0226E8FC
:100E800030E030930E0220930D0225EC30E03093D9
:100E90001202209311022FE830E030930C022093CD
:100EA0000B0210920A02109209022FE031E03093F7
:100EB00008022093070224EB31E0309306022093CE
:100EC00005022BE432E03093040220930302052F45
:100ED000A7019601672F892F0E945F00C82F01C0CC
:100EE000C2E0C1110BC00E944A08882331F081E0A2
:100EF0008093300103C0C2E001C0C3E08C2FCF91CA
:100F00001F910F91FF90EF90DF90CF900895809107
:100F10003001813049F4E0910F02F09110020995FF
:100F20001092300180E0089586E00895CF93DF931A
:100F30001F92CDB7DEB780913001811199C0CE01EB
:100F400001960E945508813009F094C08981813052
:100F500019F08230D9F090C0E0910B02F0910C02B0
:100F60004EEF51E060E072E082E092E0099581117D
:100F700085C08091020290911302891711F08111AE
:100F80007FC082E00E944E0880E080C0A0910002F5
:100F9000B09101024C914093FD0181E08093FC01EE
:100FA00090910001992309F46DC0491759F0E3E0CD
:100FB000F1E021E030E09081992309F463C0491306
:100FC0001AC002C020E030E0F901EE0FFF1F2E0F23
:100FD0003F1FF901E050FF4F0180F281E02D6EEFDD
:100FE00071E0CD0109958093FC019091020291116D
:100FF00009C080E04BC02F5F3F4F33962031310551
:10100000D1F640C0882319F101C081E0E0910002CF
:10101000F091010221E030E03093FF012093FE01C6
:101020009091FD01906890834091000250910102DF
:101030002091FE013091FF01B9016F5F7F4F7093E6
:10104000FF016093FE01FA01E20FF31F80834091DC
:10105000FE015091FF016091000270910102E09148
:101060001102F091120280911302099580E00EC0E6
:1010700086E00CC080E00AC080E008C080E006C0C6
:1010800080E004C0809102028111BFCF0F90DF91F8
:10109000CF9108951092140281E0089591E0909309
:1010A00014028093150281E00895FC0190911402CE
:1010B000992339F08091150280831092140281E007
:1010C000089580E00895E1ECF0E0908198649083C9
:1010D000882321F080818069808305C0E1ECF0E005
:1010E00080818F768083662339F0E1ECF0E08081A7
:1010F000886280835A9A0895E1ECF0E080818F7DC8
:10110000808308950F93CF93C22FDB01CA01880F0C
:10111000991FAA1FBB1F880F991FAA1FBB1F9C01E5
:10112000AD01220F331F441F551F220F331F441FD1
:10113000551F60E074E284EF90E00E94320E21506F
:1011400031093093C5002093C400013021F00230F2
:1011500021F490E203C090E301C090E0C73021F099
:10116000C83019F4966001C09460E2ECF0E0808130
:10117000892B808360E080E00E946308529A5A982D
:1011800081E0CF910F9108958093C60081E008958A
:101190002091C600FC01208381E008951F920F92E8
:1011A0000FB60F9211242F933F934F935F936F933A
:1011B0007F938F939F93AF93BF93EF93FF93E091B0
:1011C0000502F09106020995FF91EF91BF91AF9151
:1011D0009F918F917F916F915F914F913F912F914F
:1011E0000F900FBE0F901F9018951F920F920FB681
:1011F0000F9211242F933F934F935F936F937F939D
:101200008F939F93AF93BF93EF93FF93E091070268
:10121000F09108020995FF91EF91BF91AF919F91D5
:101220008F917F916F915F914F913F912F910F908F
:101230000FBE0F901F9018951F920F920FB60F922E
:1012400011245A980F900FBE0F901F9018959C0173
:10125000A9E0BDE30E94540E20E23EE440E050E0ED
:101260000E94320E30931902209318021092B0009F
:10127000E1EBF0E010828081887F8083E0E7F0E09E
:1012800080818C7F808387B3836087BB81E00895F2
:10129000109217021092B20080911902882389F0EF
:1012A000E0E7F0E080818160808380818D7F8083B2
:1012B0008091190280931602809118028093B300E6
:1012C00014C080911802882381F0E0E7F0E080816B
:1012D0008260808380818E7F8083809119028093D9
:1012E0001602809118028093B300E1EBF0E0808158
:1012F000876080830895E1EBF0E08081887F8083C0
:10130000E0E7F0E080818C7F808387B3836087BBD8
:1013100008951F920F920FB60F9211242F933F93AF
:101320004F935F936F937F938F939F93AF93BF93ED
:10133000EF93FF93E0910302F09104020995FF916E
:10134000EF91BF91AF919F918F917F916F915F913D
:101350004F913F912F910F900FBE0F901F901895B6
:101360001F920F920FB60F9211242F933F934F931A
:101370005F936F937F938F939F93AF93BF93EF93FD
:10138000FF93809117028F5F80931702909116024E
:101390008917E0F0891315C0E0E7F0E080818260F2
:1013A0008083809118028093B300A1EBB0E08C9110
:1013B000887F8C9380818E7F808387B3836087BB97
:1013C00005C0E0910302F09104020995FF91EF91AD
:1013D000BF91AF919F918F917F916F915F914F914D
:1013E0003F912F910F900FBE0F901F901895803155
:1013F00070F4662364F090E0FC01E55DFD4F10821F
:10140000FC01E558FD4F608381E080931A02089546
:10141000AF92BF92CF92DF92EF92FF920F931F9302
:10142000CF93803108F08FC066230CF48FC0082F53
:1014300010E0F801E558FD4F9081E62FE91B09F413
:1014400088C0C62FF82F9A01329522952F70232736
:101450003F7023272115310529F40E94F70980E008
:1014600090E079C0EE2E0E2E000CFF086701FF20E1
:1014700024F4CC24DD24CE18DF08C901B6010E9473
:101480000A0E6131710538F0960122953295307F50
:101490003227207F3227C701B9010E941E0E462F36
:1014A000611105C0EE2314F041E001C04FEFA42EFE
:1014B000042E000CBB082A9DC0012B9D900D3A9D67
:1014C000900D1124B7010E941E0E262F611101C03C
:1014D00021E0C22ED12CEC9CC001ED9C900DFC9C17
:1014E000900D1124B5010E941E0ECB01B6010E9481
:1014F0000A0E611107C06C2F8F2F0E94F70980E040
:1015000090E029C0D801A55DBD4F1C92F801E55AB5
:10151000FD4F4083F801E55BFD4F2083F801E55C5A
:10152000FD4F2083F801E55EFD4FC0836C936C9DF9
:10153000C0016D9D900D112482959295907F982702
:10154000807F982708C08FEF9FEF05C08EEF9FEF39
:1015500002C080E090E0CF911F910F91FF90EF903B
:10156000DF90CF90BF90AF900895AFE6B0E01C92AF
:10157000EBE6F2E01082118212821382148215824D
:101580001682178210861186128613861486158697
:1015900016861786EBE7F2E0108211821282138220
:1015A000148215821682178210861186128613867F
:1015B0001486158616861786EBE2F2E010821182F9
:1015C0001282138214821582168217821086118667
:1015D00012861386148615861686178680E88093F1
:1015E00031018FE384B987B98AB1806F8AB980ED00
:1015F00097E090938900809388001092800089E0A2
:101600008093810082E08C9308951F920F920FB611
:101610000F9211242F933F934F938F939F93AF93E8
:10162000BF93EF93FF9380913101815009F451C032
:1016300090916B02891301C0459A90916C028913B5
:1016400001C0449A90916D02891301C0439A909110
:101650006E02891301C0429A90916F02891301C0F2
:10166000419A90917002891301C0409A9091710241
:10167000891301C02D9A90917202891301C02C9A8E
:1016800090917302891301C02B9A9091740289136F
:1016900001C02A9A90917502891301C0299A9091EC
:1016A0007602891301C05C9A90917702891301C078
:1016B000289A90917802891301C05F9A90917902DB
:1016C000891301C05E9A90917A02891350C05D9A85
:1016D0004EC015B818B88BB18F708BB980911A02B3
:1016E000882309F486C010921A02ABE7B2E08C910D
:1016F000EBE6F2E0808311968C911197818312962C
:101700008C911297828313968C91139783831496EE
:101710008C911497848315968C91159785831696D2
:101720008C911697868317968C91179787831896B6
:101730008C911897808719968C91199781871A96A2
:101740008C911A9782871B968C911B9783871C9686
:101750008C911C9784871D968C911D9785871E966A
:101760008C911E9786871F968C91878742C0982FF1
:101770009770E1F5282F269526952695215030E083
:10178000F901E55DFD4F9081992381F1F901E55C57
:10179000FD4F9081915090839081911127C0F90164
:1017A000E55BFD4F9081F901E55CFD4F9083F90108
:1017B000E55DFD4F9081915090839081992359F080
:1017C000F901E55AFD4F4081F901E558FD4F90813F
:1017D000940F908308C0F901E55EFD4F9081F901F7
:1017E000E558FD4F908391E090931A028093310168
:1017F00002C080E8BFCFFF91EF91BF91AF919F9161
:101800008F914F913F912F910F900FBE0F901F908E
:101810001895FC0117861686148285B5856085BDEE
:1018200016BCEEE6F0E080818160808378940895B4
:10183000FC012585211102C01686089521E0FC01D6
:10184000278708950F931F93CF93DF93EC0181E0D7
:101850008D8708811981B80180E090E00E947C0D9D
:101860002FE632E143E851E40E94DB0C0E944D0D6B
:1018700078876F83A80169858C810E94080ADF91AF
:10188000CF911F910F9108950F931F93CF93DF93E3
:10189000EC011D860A811B81B80180E090E00E9466
:1018A0007C0D2FE632E143E851E40E94DB0C0E94FC
:1018B0004D0D78876F83A8016B858C810E94080A83
:1018C000DF91CF911F910F910895CF93DF93EC019A
:1018D0008D85882321F0CE010E94440C03C0CE01E7
:1018E0000E94220C8F85882329F08D85811102C0EA
:1018F0001F861E86DF91CF910895EF92FF920F937E
:101900001F93FC01648352874187348723871183A7
:101910000083F382E28281E0868717861682158231
:10192000CF010E94220C1F910F91FF90EF9008951C
:10193000FC018685882379F08581968101969683BE
:101940008583278130858217930728F0CF0116827F
:1019500015820E94650C08951F920F920FB60F9288
:1019600011242F933F934F935F936F937F938F93A4
:101970009F93AF93BF93EF93FF9316BC8CE591E0D9
:101980000E94980C8CE491E00E94980C8CE391E00A
:101990000E94980CFF91EF91BF91AF919F918F9111
:1019A0007F916F915F914F913F912F910F900FBE5B
:1019B0000F901F9018950E94EF0C0C94D00D0E9470
:1019C000C90D58F00E94C20D40F029F45F3F29F084
:1019D0000C94B90D51110C94040E0C94BF0D0E947F
:1019E000E10D68F39923B1F3552391F3951B550B42
:1019F000BB27AA2762177307840738F09F5F5F4FE2
:101A0000220F331F441FAA1FA9F335D00E2E3AF020
:101A1000E0E832D091505040E695001CCAF72BD038
:101A2000FE2F29D0660F771F881FBB1F2617370789
:101A30004807AB07B0E809F0BB0B802DBF01FF27BB
:101A400093585F4F3AF09E3F510578F00C94B90DD2
:101A50000C94040E5F3FE4F3983ED4F3869577959B
:101A60006795B795F7959F5FC9F7880F911D969574
:101A7000879597F90895E1E0660F771F881FBB1FD0
:101A8000621773078407BA0720F0621B730B840B7D
:101A9000BA0BEE1F88F7E09508950E94E90D88F0D3
:101AA0009F5798F0B92F9927B751B0F0E1F0660F22
:101AB000771F881F991F1AF0BA95C9F714C0B13063
:101AC00091F00E94030EB1E008950C94030E672F6D
:101AD000782F8827B85F39F0B93FCCF38695779592
:101AE0006795B395D9F73EF490958095709561957B
:101AF0007F4F8F4F9F4F0895E89409C097FB3EF4A6
:101B000090958095709561957F4F8F4F9F4F99234A
:101B1000A9F0F92F96E9BB279395F69587957795C8
:101B20006795B795F111F8CFFAF4BB0F11F460FF88
:101B30001BC06F5F7F4F8F4F9F4F16C0882311F0E0
:101B400096E911C0772321F09EE8872F762F05C0F4
:101B5000662371F096E8862F70E060E02AF09A958F
:101B6000660F771F881FDAF7880F9695879597F984
:101B7000089597F99F6780E870E060E008959FEF0F
:101B800080EC089500240A94161617061806090614
:101B9000089500240A9412161306140605060895E3
:101BA000092E0394000C11F4882352F0BB0F40F46B
:101BB000BF2B11F460FF04C06F5F7F4F8F4F9F4FAB
:101BC000089557FD9058440F551F59F05F3F71F02D
:101BD0004795880F97FB991F61F09F3F79F0879594
:101BE0000895121613061406551FF2CF4695F1DF1D
:101BF00008C0161617061806991FF1CF86957105AD
:101C0000610508940895E894BB2766277727CB01E0
:101C100097F90895AA1BBB1B51E107C0AA1FBB1F60
:101C2000A617B70710F0A61BB70B881F991F5A9568
:101C3000A9F780959095BC01CD01089597FB072EDB
:101C400016F4009407D077FD09D00E940A0E07FC15
:101C500005D03EF4909581959F4F089570956195BC
:101C60007F4F0895A1E21A2EAA1BBB1BFD010DC0D8
:101C7000AA1FBB1FEE1FFF1FA217B307E407F5073C
:101C800020F0A21BB30BE40BF50B661F771F881F18
:101C9000991F1A9469F760957095809590959B01AE
:101CA000AC01BD01CF010895A29FB001B39FC00157
:101CB000A39F700D811D1124911DB29F700D811D78
:101CC0001124911D0895EE0FFF1F0590F491E02D52
:101CD0000994FB01DC0102C001900D92415050407B
:081CE000D8F70895F894FFCF36
:101CE80011FD0604870603B705107D05065F051775
:101CF800FF05010A040572040FAB0402F804000092
:101D080000000000000000000000000000000000CB
:021D1800028047
:00000001FF
