:1000000089C00000A5C00000A3C00000A1C000007E
:100010009FC000009DC000009BC0000099C0000070
:1000200097C000000C947D0D93C000000C94A80DA7
:100030008FC000006BC400008BC0000089C00000AE
:1000400087C0000085C0000084C0000081C000009F
:100050000C94340D0C94090D0C945F0D79C00000C4
:1000600077C0000075C0000073C0000071C00000C0
:10007000D4C20000AFC300005EC3000069C000002E
:1000800067C0000065C0000063C0000028012C01AB
:100090001C01220147014701300136013C014201A8
:1000A000000000010200090A000000000403080724
:1000B0000000000000000000000000000000000040
:1000C0000102040810204080010204081020408032
:1000D0000102040810204080010204081020408022
:1000E00002020202020202020404040404040404E0
:1000F00003030303030303030101010101010101E0
:1001000000002200250028002B0000002100240010
:1001100027002A0011241FBECFEFD0E4DEBFCDBFE1
:1001200011E0A0E0B1E0E8E7FEE100E00BBF02C0B3
:1001300007900D92AE35B107D9F725E0AEE5B1E0F5
:1001400001C01D92AA35B207E1F773D40C943A0F9F
:1001500057CF1F920F920FB60F9211242F933F93F8
:100160008F939F93AF93BF9380915F0190916001B4
:10017000A0916101B091620130915E0123E0230FF3
:100180002D3720F40196A11DB11D05C026E8230FCF
:100190000296A11DB11D20935E0180935F01909393
:1001A0006001A0936101B09362018091630190911D
:1001B0006401A0916501B09166010196A11DB11D78
:1001C0008093630190936401A0936501B0936601ED
:1001D000BF91AF919F918F913F912F910F900FBE43
:1001E0000F901F9018952FB7F89460915F01709150
:1001F000600180916101909162012FBF0895789410
:1002000084B5826084BD84B5816084BD85B582601B
:1002100085BD85B5816085BDEEE6F0E080818160B9
:100220008083089590E0FC013197EA30F10578F57C
:10023000EA5BFF4F0C94190FE0E8F0E080818F77C4
:1002400080830895E0E8F0E080818F7D80830895C9
:1002500084B58F7784BD089584B58F7D84BD08955E
:10026000E0EBF0E080818F7780830895E0EBF0E0B1
:1002700080818F7D80830895E0E9F0E080818F7731
:1002800080830895E0E9F0E080818F7D8083089588
:10029000CF93DF9390E0FC01E054FF4F2491FC01E9
:1002A000E052FF4F8491882379F190E0880F991FE5
:1002B000FC01E65FFE4FA591B491FC01E050FF4FB9
:1002C000C591D49161110CC09FB7F8948C91E22F25
:1002D000E0958E238C932881E223E8839FBF14C08E
:1002E000623061F49FB7F8948C91322F309583235C
:1002F0008C93E881E22BE8839FBF06C08FB7F89408
:10030000EC91E22BEC938FBFDF91CF9108951F9377
:10031000CF93DF93282F30E0F901E056FF4F84910F
:10032000F901E054FF4F1491F901E052FF4FC491DD
:10033000CC23C9F0D62F811175DFEC2FF0E0EE0F42
:10034000FF1FE050FF4FA591B4918FB7F894D111E2
:1003500006C09C91E12FE095E923EC9303C0EC915A
:10036000E12BEC938FBFDF91CF911F910895CF9335
:10037000C82F462F409565E070E087E691E0A0D059
:100380004C2F61E070E087E691E09AD0CF9108951C
:10039000CF93C82F462F409565E070E087E691E047
:1003A0008FD04C2F63E070E087E691E089D0CF9149
:1003B0000895CF93C42F882319F08130D1F030C035
:1003C000862F972F8D3122E0920710F08CE192E07A
:1003D000BC0180E090E00E94060E2CE137EC41EF7A
:1003E0005EE30E946C0E0E94DA0D862F6C2FBFDF39
:1003F00017C0862F972F8B35910510F08AE590E076
:10040000BC0180E090E00E94060E25E535E545E35D
:1004100050E40E946C0E0E94DA0D862F6C2FB8DF1C
:10042000CF9108954F925F926F927F928F929F9299
:10043000AF92BF92CF92DF92EF92FF926B017C015D
:100440002C0166247724872E982EA92EBB244130B8
:1004500059F018F0423079F014C04FEE66E070E0C9
:1004600087E691E02DD00DC04FEF66E070E087E6A3
:1004700091E026D006C040E066E070E087E691E0BB
:100480001FD0442D67E070E087E691E019D0482D39
:1004900068E070E087E691E013D04C2D69E070E0F1
:1004A00087E691E00DD0FF90EF90DF90CF90BF9066
:1004B000AF909F908F907F906F905F904F90089536
:1004C0001616170614F061E070E0613082E07807DC
:1004D00014F060E072E0FB01E459FE4F408380912C
:1004E0000101909102018617970770F47093020141
:1004F00060930101809101019091020184599E4F06
:10050000909369018093680108951092C8009093B8
:10051000CD008093CC006093C9004093CA00089539
:1005200046E268E489E090E0F0DF1092CE000895A2
:100530008CE691E090936B0180936A0181E0809357
:1005400073034EE060E983E090E0DFDF8091C80054
:10055000882344F4AEECB0E0E8ECF0E08C918081CC
:100560008823E4F30895CF93DF93C62F1092760388
:10057000509375034093740381E08093730310924A
:100580007203109271038CE691E090936B0180935B
:100590006A0129DE60936D0370936E0380936F038D
:1005A0009093700380E092E09093020180930101A8
:1005B000809101019091020184599E4F90936901AD
:1005C00080936801ECE6F1E08DE693E01192E81784
:1005D000F907E1F7C0937603C150C330D8F4C4E7FC
:1005E000D3E061E0888154DE60E0888190DE809114
:1005F0007603813061F461E08091740388DE80E2EB
:1006000090E090930201809301018ADF03C0823061
:1006100009F48EDFDF91CF9108951F920F920FB6EC
:100620000F9211240BB60F922F933F934F935F932A
:100630006F937F938F939F93AF93BF93EF93FF93AA
:100640009091C8002091CE0080917303813021F4F5
:1006500082E0809373035CC094FF0AC083E08093C0
:1006600073038CE691E090936B0180936A0150C014
:100670008330E1F4211116C084E080937303B3DD6D
:1006800060936D0370936E0380936F039093700378
:1006900080916A0190916B01019690936B01809318
:1006A0006A0125C085E08093730325C08430F9F486
:1006B000E0916A01F0916B018081281721F081E0BF
:1006C00080930001208380916A0190916B010196D3
:1006D00090936B0180936A012091680130916901C8
:1006E0002817390720F485E08093730304C08091B4
:1006F0007303853069F480917603833031F44EE0E2
:1007000060E183E090E001DF03C082E08093730347
:10071000FF91EF91BF91AF919F918F917F916F91D9
:100720005F914F913F912F910F900BBE0F900FBE95
:100730000F901F9018951F920F920FB60F921124D1
:100740000BB60F922F933F934F935F936F937F93CB
:100750008F939F93AF93BF93EF93FF938091760313
:10076000813091F48091710390917203019661F44C
:1007700046E268E489E090E0C8DE1092CE00109274
:1007800072031092710313C08091710390917203F0
:10079000892B69F44EE068E283E090E0B6DE1092C7
:1007A000CE0081E090E09093720380937103FF91FB
:1007B000EF91BF91AF919F918F917F916F915F91D9
:1007C0004F913F912F910F900BBE0F900FBE0F9046
:1007D0001F9018951F920F920FB60F9211240BB60F
:1007E0000F922F933F934F935F936F937F938F93CA
:1007F0009F93AF93BF93EF93FF9380917103909179
:1008000072039C012F5F3F4F30937203209371035B
:10081000FC01E459FE4F80818093CE00809101015C
:100820009091020120917103309172038217930716
:1008300058F48FEF9FEF90937203809371034EE013
:1008400068E483E090E061DEFF91EF91BF91AF91AA
:100850009F918F917F916F915F914F913F912F91D8
:100860000F900BBE0F900FBE0F901F901895E1E8F0
:10087000F0E0808188608083AFE6B0E08C91826098
:100880008C9380818360808389EF809388001092AD
:10089000890078940895E7E7F3E0108289E0818386
:1008A00082E182838BE1838384E284838DE285838A
:1008B00086E386838FE3878388E480878AE5818760
:1008C000089541E060E075EA8FEF90E0ABDD609164
:1008D000770370E040E081E06CDD81E08093850388
:1008E0000895109285031092810310928203109252
:1008F00083031092840342E060E070E0CB0192DD5C
:100900004FEF60E070E081E054CD08951F920F92A8
:100910000FB60F9211240BB60F922F933F934F9364
:100920005F936F937F938F939F93AF93BF93EF9357
:10093000FF9380918503882309F468C08091810327
:1009400090918203A0918303B09184030196A11D2D
:10095000B11D8093810390938203A0938303B0938E
:100960008403E091030140918103509182036091DF
:1009700083037091840320ED37E0E29FC001E39F81
:10098000900D1124A0E0B0E084179507A607B707E3
:1009900009F03CC0F0E0EE0FFF1FEE0FFF1FEB5C15
:1009A000FE4F608171818281938141E03BDDE09166
:1009B0000301F0E0E958FC4F608170E06F5F7F4F0A
:1009C00040E081E0F6DC8091030191E0980F909384
:1009D00003018A50823050F442E060E070E0CB01C5
:1009E00021DD4FEF60E070E081E0E3DC8091030106
:1009F0008D3061F466DF10928103109282031092B1
:100A000083031092840381E080930301FF91EF91AF
:100A1000BF91AF919F918F917F916F915F914F9116
:100A20003F912F910F900BBE0F900FBE0F901F9014
:100A30001895CF93DF9300D01F92CDB7DEB7DFDBE1
:100A400084B18E6184B913DF26DF8AEA89838BEB58
:100A50008A838CEC8B83EE24E39400E815E220E09B
:100A600030E040E067E481E030D623E030E0AE01E2
:100A70004F5F5F4F61E084E3D8D588D64EE050E009
:100A800061E070E087E691E06EDD2FEF33E284EF06
:100A900090E02150304080409040D9F700C00000E5
:100AA0004FE76AE570E080E084DC2FEF33ED80E310
:100AB000215030408040E1F700C000004FE760E087
:100AC00070E080E076DC9FEF23ED30E39150204032
:100AD0003040E1F700C000004FE76AE570E081E0D8
:100AE00068DC8FEF93ED20E3815090402040E1F7E8
:100AF00000C000004FE760E070E081E05ADC55D6AE
:100B0000FECF683E23E07207A8F0640F751F6D3EAC
:100B1000734090F44115510589F0FC01440F551FB5
:100B2000840F951F108211823296E817F907D1F7CA
:100B300080E0089581E0089581E0089580E00895BF
:100B40006F927F928F929F92AF92BF92CF92DF92DD
:100B5000EF92FF920F931F93CF93DF938A01683E2A
:100B600033E0730708F4AEC0AB01400F511F4F32A2
:100B7000544008F0A9C07B01F8EEEF1AF3E0FF0A39
:100B800021111AC00115110509F4A0C0FC01660F5E
:100B9000771FDB01AA54B440000F111F080F191F63
:100BA0009C9111962C9111971296208391833296E5
:100BB0000E171F07A9F78CC0213009F08BC0011553
:100BC000110509F489C06C01660F771FEB01CA5447
:100BD000D4400F2EF6E8AF2EF3E0BF2EF02DF60135
:100BE0008080912C982C88248181882A89929992DE
:100BF000FBE0EF16F104A1F4F501608D718D428DDB
:100C00009924F6E18F16910441F031E283169104A4
:100C100009F04AC081E0CDDB47C080E0CADB44C0B8
:100C20008FE0E816F10411F44CDE3EC0E0E1EE1670
:100C3000F10411F456DE38C0F1E1EF16F104A1F52C
:100C4000F50164A076A080A591A599278230910531
:100C500061F08330910581F00197A1F44FEE66E0D9
:100C600070E087E691E02CDC0DC04FEF66E070E0AD
:100C700087E691E025DC06C040E066E070E087E6AC
:100C800091E01EDC482D67E070E087E691E018DC1B
:100C9000462D68E070E087E691E012DC472D69E0C0
:100CA00070E087E691E00CDCFFEFEF1AFF0A0150DD
:100CB000110932E0C30ED11C0115110509F08FCFC7
:100CC00080E00BC081E009C081E007C080E005C082
:100CD00080E003C080E001C080E0DF91CF911F91F0
:100CE0000F91FF90EF90DF90CF90BF90AF909F90CB
:100CF0008F907F906F90089581E0089581E008952E
:100D00000F93862FBA01A901F8949AE090931204E8
:100D100028E035D6813039F480E29EE4DBD681309C
:100D200021F083E003C083E001C080E078940F915C
:100D30000895F89460E081E003D610921A04789444
:100D400080E0E9C50895F89460E080E0F9D5D4D654
:100D500078940895CF93DF93EC01F89420911804D0
:100D6000309119042330310520F1A0911804B0917D
:100D70001904109761F0EAE5F4E0A65ABB4F90E041
:100D80002191920FEA17FB07D9F7911114C08091B6
:100D90005A04888380911804909119040297FA01EB
:100DA000918380838BE594E0FB019183808380E0D5
:100DB00003C085E001C085E07894DF91CF9108956C
:100DC000F89490911A04911141C0FB013197F0936E
:100DD0001604E093150421E030E0309314042093CE
:100DE000130480838091130490911404480F591FB9
:100DF000509314044093130420911304309114046D
:100E0000C9010197232B49F0680F791F80E0919168
:100E1000890FE617F707D9F701C080E08195209187
:100E2000130430911404A9014F5F5F4F50931404D1
:100E300040931304F901E65AFB4F808381E08093CD
:100E40001B0461E080E07CD580E001C085E07894FF
:100E50000895CF93DF931F92CDB7DEB7CE010196F1
:100E6000D2D580911A04813031F008F478C08230F4
:100E700009F458C083C03BD689818A3341F410926B
:100E80001704109219041092180480E07CC08D3071
:100E900029F482E080931A0480E075C090ED980FE9
:100EA0009A3040F09FEB980F963018F499EC980F19
:100EB00001C09FEF80911704882319F08130E1F081
:100EC0005FC020911804309119042F3F310509F0BB
:100ED00070F4E0911804F0911904E65AFB4F9295D2
:100EE000907F908381E08093170480E04CC0109243
:100EF0001A0402D680E047C0E0911804F09119046A
:100F0000E65AFB4F8081982B908380911804909132
:100F100019040196909319048093180410921704F1
:100F200080E031C0898190911204891306C0E4D514
:100F300010921A0481E0EFD426C08A3361F4109233
:100F40001704109219041092180481E080931A0477
:100F5000CED580E018C010921A0480E014C08981B8
:100F60008A3381F4C4D51092190410921804109297
:100F7000170481E080931A0480E005C080E003C07C
:100F800080E001C080E00F90DF91CF910895CF9372
:100F900080911B048230B9F030F4882309F47BC0BF
:100FA000813041F07DC0833009F462C0843009F49F
:100FB00067C076C08AE323D582E080931B04109239
:100FC0001704C0E070C08091130490911404892B21
:100FD00009F447C080911704882319F08130C9F0C3
:100FE00061C0E0911504F0911604808182958F70A4
:100FF0008A3010F4805D07C096EF980F963010F499
:10100000895C01C080E3FBD481E080931704C0E0D9
:101010004AC0E0911504F091160480818F708A30E7
:1010200010F4805D07C096EF980F963010F4895C3D
:1010300001C080E3E4D480911504909116040196D8
:101040009093160480931504109217048091130452
:101050009091140401979093140480931304C0E0BA
:1010600022C08DE0CCD483E080931B04C0E01BC081
:1010700080911204C4D484E080931B04C0E013C0A8
:1010800010921B0483E047D4C82F60E081E058D45D
:1010900010921B0408C060E081E052D4C0E003C09D
:1010A000C0E001C0C0E08C2FCF91089580911A0458
:1010B0008150823010F410921A041ED580E00895F9
:1010C0001F93CF93DF93DB012D913C9125303105A8
:1010D00009F055C0FC01438150E0542F442724817E
:1010E000422B9A01215031092F3C374008F049C06A
:1010F000DC0111963C91119712962C911297FB01ED
:1011000011821082E1E0EC93DB01ED91FC911197EB
:101110003196ED93FC93FA01E770FF27EF2B51F026
:10112000FA01F695E795F695E795F695E79511E0BE
:101130001E0F08C0FA01F695E795F695E795F69526
:10114000E7951E2FEB01FC011183688179816F5FA8
:101150007F4F79836883622F70E0732B6F5F7F4FBF
:1011600020E00296C9DD882311F0A1D20BC088814E
:101170009981810F911D9983888380E003C083E06A
:1011800001C083E0DF91CF911F910895CF93DF934A
:1011900000D0CDB7DEB7FB0120813181253031058C
:1011A00001F5FC01248121111EC023813FEF320F84
:1011B0003E3FD8F0318162811A822F3F19F481E0DD
:1011C000898301C0198270E0732B6F5F7F4F21E02C
:1011D00041E050E0CE0101968FDD882341F067D2D7
:1011E00007C083E005C083E003C083E001C080E066
:1011F0000F900F90DF91CF910895CF93DF93FB0174
:101200002081318126303105D8F1FC01438150E045
:10121000542F44272481422B9A0127703327232BF4
:1012200049F09A0136952795369527953695279555
:101230002F5F07C09A0136952795369527953695E5
:101240002795FA013197E03BF740E0F4FC01358146
:1012500023131AC0EB01618170E0762F662722818B
:10126000622B6F5F7F4F21E0069646DD882311F0E9
:101270001ED20BC085E090E09983888380E005C092
:1012800083E003C083E001C083E0DF91CF91089544
:101290001F93CF93DF93DB012D913C9125303105D6
:1012A00009F054C0FC01438150E0542F44272481AD
:1012B000422B9A01215031092F3C374008F048C099
:1012C000DC0111963C91119712962C911297FB011B
:1012D00011821082E2E0EC93DB01ED91FC91119719
:1012E0003196ED93FC93FA01E770FF27EF2B51F055
:1012F000FA01F695E795F695E795F695E79511E0ED
:101300001E0F08C0FA01F695E795F695E795F69554
:10131000E7951E2FEB01FC011183688179816F5FD6
:101320007F4F79836883622F70E0732B6F5F7F4FED
:101330000296E4DC882311F0BAD10BC08881998130
:10134000810F911D9983888380E003C083E001C0F1
:1013500083E0DF91CF911F910895FB0120813181BE
:101360002530310591F4FC01618170E0762F66270C
:101370002281622B6F5F7F4F21E041E050E00396B6
:10138000DFDB882321F093C1089583E0089580E096
:101390000895CF93DF93FB01208131812630310501
:1013A00040F1FC01438150E0542F44272481422B1B
:1013B0009A012150310928373105E8F43581242F6D
:1013C000220F32131AC0EB01618170E0762F66277D
:1013D0002281622B6F5F7F4F21E00696B1DB88236D
:1013E00011F065D10BC085E090E09983888380E09F
:1013F00005C083E003C083E001C083E0DF91CF91AB
:1014000008950F931F93CF93DF93FB0120813181C8
:1014100025303105A1F5FC012481022F10E0A8013F
:10142000415051094D37510560F5EB013181628121
:101430001982188283E0808388819981019699833B
:101440008883220F218388819981019699838883DB
:1014500070E0732B6F5F7F4F20E0A801CF010296F1
:101460006FDB882311F023D10DC0000F111F88817D
:101470009981080F191F1983088380E003C083E056
:1014800001C083E0DF91CF911F910F910895CF921A
:10149000DF92EF92FF920F931F93CF93DF93FB01A5
:1014A000208131812A30310508F464C0FC01C381F8
:1014B000D0E0DC2FCC272481C22B9E0121503109A2
:1014C0002D37310508F058C0478150E0542F44278C
:1014D0002085422B9A01215031092937310508F026
:1014E0004DC0218530E0FA01EE0FFF1FE217F30730
:1014F00009F046C08B017C01FC01C180D28065816E
:1015000070E0762F66278681682B6F5F7F4F21E022
:10151000C7010A9615DB811135C0F80111821082CE
:1015200087E1F7018083F8018081918101969183A1
:1015300080838C2F880FF7018183F801808191814E
:101540000196918380836D2D70E07C296F5F7F4FC2
:1015500020E0AE01C7010296F3DA811113C0CC0F6F
:10156000DD1FF801808191818C0F9D1F9183808305
:1015700080E009C080E007C083E005C083E003C0CD
:1015800083E001C094D0DF91CF911F910F91FF9024
:10159000EF90DF90CF9008950F931F93CF93DF9339
:1015A000FB012081318125303105B9F5FC01038132
:1015B00010E0102F00272481022B980121503109BF
:1015C0002C37310560F5EB01218162811982188287
:1015D00084E0808388819981019699838883802F14
:1015E000880F81838881998101969983888370E02F
:1015F000722B6F5F7F4FA801CF01029682DA88239A
:1016000011F055D00DC0000F111F88819981080F6E
:10161000191F1983088380E003C083E001C083E0C1
:10162000DF91CF911F910F910895CF93DF93E9013F
:101630002296C032D105E8F480931E0482E090E047
:1016400090931D0480931C0481E0611101C080E02F
:10165000819580931F042115310569F0BA01A90114
:1016600080E294E0FED3D0931D04C0931C0480E07C
:1016700003C084E001C080E0DF91CF9108950F9313
:101680001F93CF93DF938B01C0911C04D0911D0455
:10169000AE016EE174E00196E4D32196F801D183A6
:1016A000C08380E0DF91CF911F910F910895813029
:1016B00021F048F0873019F004C082E0089586E0F8
:1016C000089584E0089580E00895CF92DF92EF922C
:1016D000FF920F931F93CF939FEF960F973F08F0C2
:1016E00049C05E2D68017901742F962F60935504CF
:1016F0008130B1F529E936E030935204209351044A
:1017000023EA36E03093500420934F0420EE36E075
:1017100030935404209353042AEA36E030934E0465
:1017200020934D0410924C0410924B0429E237E0B0
:1017300030934A042093490427EC37E0309348045F
:101740002093470426E538E030934604209345046F
:10175000052FA7019601672F892FD2DAC82F01C064
:10176000C2E0C1110AC0D3D0882331F081E0809358
:10177000340103C0C2E001C0C3E08C2FCF911F91A0
:101780000F91FF90EF90DF90CF90089580913401FA
:10179000813049F4E0915104F0915204099510927E
:1017A000340180E0089586E00895CF93DF931F927F
:1017B000CDB7DEB780913401811197C0CE0101967B
:1017C000B1D0813009F093C08981813019F0823025
:1017D000D1F08FC0E0914D04F0914E0440E454E00C
:1017E00062E474E084E494E00995811184C08091FE
:1017F000440490915504891711F081117EC082E054
:101800008AD080E080C0A0914204B09143044C9102
:1018100040933F0481E080933E049091040199231A
:1018200009F46DC0491759F0E7E0F1E021E030E03C
:101830009081992309F463C049131AC002C020E0C3
:1018400030E0F901EE0FFF1F2E0F3F1FF901EC5F93
:10185000FE4F0180F281E02D60E474E0CD01099536
:1018600080933E0490914404911109C080E04BC0E4
:101870002F5F3F4F339620313105D1F640C088238A
:1018800019F101C081E0E0914204F091430421E0AC
:1018900030E0309341042093400490913F049068DD
:1018A0009083409142045091430420914004309130
:1018B0004104B9016F5F7F4F70934104609340040E
:1018C000FA01E20FF31F80834091400450914104DC
:1018D0006091420470914304E0915304F0915404E8
:1018E00080915504099580E00EC086E00CC080E030
:1018F0000AC080E008C080E006C080E004C080919B
:1019000044048111BFCF0F90DF91CF9108951092C1
:10191000560481E0089591E0909356048093570413
:1019200081E00895FC0190915604992339F080914B
:10193000570480831092560481E0089580E0089552
:10194000E1ECF0E0908198649083882321F080811D
:101950008069808305C0E1ECF0E080818F76808330
:10196000662339F0E1ECF0E08081886280835F9A41
:101970000895E1ECF0E080818F7D808308950F93DE
:10198000CF93C22FDB01CA01880F991FAA1FBB1F6B
:10199000880F991FAA1FBB1F9C01AD01220F331F87
:1019A000441F551F220F331F441F551F60E074E270
:1019B00084EF90E01CD2215031093093C500209370
:1019C000C400013021F0023021F490E203C090E322
:1019D00001C090E0C73021F0C83019F4966001C012
:1019E0009460E2ECF0E08081892B808360E080E00D
:1019F000A7DF579A5F9881E0CF910F910895809368
:101A0000C60081E008952091C600FC01208381E09A
:101A100008951F920F920FB60F9211240BB60F92DA
:101A20002F933F934F935F936F937F938F939F93E6
:101A3000AF93BF93EF93FF93E0914704F091480475
:101A40000995FF91EF91BF91AF919F918F917F91F8
:101A50006F915F914F913F912F910F900BBE0F901F
:101A60000FBE0F901F9018951F920F920FB60F92F6
:101A700011240BB60F922F933F934F935F936F9365
:101A80007F938F939F93AF93BF93EF93FF93E091D7
:101A90004904F0914A040995FF91EF91BF91AF91EC
:101AA0009F918F917F916F915F914F913F912F9176
:101AB0000F900BBE0F900FBE0F901F9018951F92A6
:101AC0000F920FB60F9211245F980F900FBE0F90D8
:101AD0001F9018959C01A9E0BDE3B4D120E23EE43B
:101AE00040E050E084D13093590481E00895109291
:101AF00058041092B200089508951F920F920FB6E5
:101B00000F9211240BB60F922F933F934F935F9335
:101B10006F937F938F939F93AF93BF93EF93FF93B5
:101B2000E0914504F09146040995FF91EF91BF9132
:101B3000AF919F918F917F916F915F914F913F9165
:101B40002F910F900BBE0F900FBE0F901F90189506
:101B50001F920F920FB60F9211240BB60F922F9374
:101B60003F934F935F936F937F938F939F93AF9325
:101B7000BF93EF93FF93809158048F5F8093580435
:101B8000882329F0E0914504F09146040995FF91DE
:101B9000EF91BF91AF919F918F917F916F915F91E5
:101BA0004F913F912F910F900BBE0F900FBE0F9052
:101BB0001F90189570D088F09F5790F0B92F9927F3
:101BC000B751A0F0D1F0660F771F881F991F1AF048
:101BD000BA95C9F712C0B13081F077D0B1E008955D
:101BE00074C0672F782F8827B85F39F0B93FCCF3DE
:101BF000869577956795B395D9F73EF4909580953E
:101C0000709561957F4F8F4F9F4F0895E89409C05D
:101C100097FB3EF490958095709561957F4F8F4F1F
:101C20009F4F9923A9F0F92F96E9BB279395F69535
:101C3000879577956795B795F111F8CFFAF4BB0FB3
:101C400011F460FF1BC06F5F7F4F8F4F9F4F16C017
:101C5000882311F096E911C0772321F09EE8872FA1
:101C6000762F05C0662371F096E8862F70E060E05D
:101C70002AF09A95660F771F881FDAF7880F9695D6
:101C8000879597F9089557FD9058440F551F59F0BF
:101C90005F3F71F04795880F97FB991F61F09F3F59
:101CA00079F087950895121613061406551FF2CF82
:101CB0004695F1DF08C0161617061806991FF1CFD2
:101CC00086957105610508940895E894BB276627F9
:101CD0007727CB0197F908950BD078C069D028F009
:101CE0006ED018F0952309F05AC05FC01124EECFD2
:101CF000CADFA0F3959FD1F3950F50E0551F629F67
:101D0000F001729FBB27F00DB11D639FAA27F00D54
:101D1000B11DAA1F649F6627B00DA11D661F829F7B
:101D20002227B00DA11D621F739FB00DA11D621F60
:101D3000839FA00D611D221F749F3327A00D611D7D
:101D4000231F849F600D211D822F762F6A2F11245F
:101D50009F5750408AF0E1F088234AF0EE0FFF1FB2
:101D6000BB1F661F771F881F91505040A9F79E3FE9
:101D7000510570F014C0AACF5F3FECF3983EDCF33E
:101D8000869577956795B795F795E7959F5FC1F726
:101D9000FE2B880F911D9695879597F9089597F9D1
:101DA0009F6780E870E060E008959FEF80EC089501
:101DB00000240A941616170618060906089500242A
:101DC0000A9412161306140605060895092E0394A4
:101DD000000C11F4882352F0BB0F40F4BF2B11F418
:101DE00060FF04C06F5F7F4F8F4F9F4F0895A1E248
:101DF0001A2EAA1BBB1BFD010DC0AA1FBB1FEE1F85
:101E0000FF1FA217B307E407F50720F0A21BB30BCF
:101E1000E40BF50B661F771F881F991F1A9469F74B
:101E200060957095809590959B01AC01BD01CF01A7
:101E30000895EE0FFF1F0024001C0BBE0790F691C3
:101E4000E02D0994A29FB001B39FC001A39F700D24
:101E5000811D1124911DB29F700D811D1124911DB2
:101E60000895FB01DC0102C001900D9241505040E9
:081E7000D8F70895F894FFCFA4
:101E7800010F0001113F0B04CC0A03010A10C90924
:101E880006AD0917470A01600805C6080FFD0802D4
:101E980048090000000000000000000000000000E9
:101EA800000000000200A5FF00007FFF0025C1FF21
:101EB8000000D7FF0000C9EE00247FFF00FFFFF0FD
:0E1EC80000CDCDC100EEAC5C008B3C470000AD
:00000001FF
