:100000000C9463000C948B000C948B000C94B40142
:100010000C94B4010C94B4010C948B000C94360E27
:100020000C948B000C945D0E0C948B000C94B90412
:100030000C948B000C948B000C948B000C948B0014
:100040000C947A030C948B000C949E0D0C94770DF9
:100050000C94C50D0C948B000C948B000C948B00AD
:100060000C948B000C948B0000000008000201002F
:100070000003040700000000000000000102040863
:100080001020408001020408102001020408102002
:10009000040404040404040402020202020203032E
:1000A00003030303000000002300260029000000D2
:1000B0000000250028002B0000000000240027007D
:1000C0002A00AD06B20611241FBECFEFD8E0DEBF76
:1000D000CDBF11E0A0E0B1E0ECE1F0E202C005909C
:1000E0000D92A834B107D9F723E0A8E4B1E001C02C
:1000F0001D92A739B207E1F710E0C2E6D0E004C0D4
:100100002197FE010E94F20FC136D107C9F70E9464
:100110006B050C9401100C94000080E090E00895B1
:10012000CF92DF92EF92FF920F931F93CF93DF93C3
:1001300041155105C1F06A018C01E62EF72EC0E091
:10014000D0E0D7016D917D01D801ED91FC91019036
:10015000F081E02DC8010995892B39F02196CC1644
:10016000DD0679F702C0C0E0D0E0CE01DF91CF918B
:100170001F910F91FF90EF90DF90CF900895209105
:100180008A0130918B0128173907F9F490914801C1
:10019000809149019817E1F0E0914801F0E0E65BB9
:1001A000FE4F80812091480130E02F5F3F4F2F7339
:1001B0003078332334F421503109206C3F6F2F5FA6
:1001C0003F4F2093480190E008958FEF9FEF0895EF
:1001D0008FEF9FEF089520918A0130918B012817AE
:1001E0003907B1F4209149018091480130E0205C49
:1001F0003F4F281B31092F733078332334F42150BB
:100200003109206C3F6F2F5F3F4F822F932F08954E
:1002100080E090E008951F93CF93DF93EC014C8D25
:100220005D8D4115510529F481E090E09B838A831F
:1002300039C0A989BA893889832F80951FB79E8DC7
:1002400091FB772770F991FD6095F894772321F061
:100250009C91932B9C9303C09C9198239C93FA01AF
:100260003197F1F798E060FF04C02C91232B2C9379
:1002700003C02C9128232C93FA013197F1F766954E
:10028000915089F7772321F09C9189238C9303C0A7
:100290008C91382B3C931FBF8C8D9D8D0197F1F76E
:1002A00041E050E0CA01DF91CF911F910895089578
:1002B00020918A0130918B012817390771F49091B0
:1002C000480180914901981759F0E0914801F0E008
:1002D000E65BFE4F808190E008958FEF9FEF0895D9
:1002E0008FEF9FEF0895E0918A01F0918B01E8175D
:1002F000F90769F4A389B4899C918589809589233C
:100300008C9310928B0110928A0181E0089580E015
:100310000895CF93DF93EC018A8D9B8D892BF1F0AB
:1003200080918A0190918B018C179D07C9F00097ED
:1003300011F00E9473018E8D8E7F8E8F1092490175
:1003400010924801D0938B01C0938A01EB89FC89FC
:1003500090818D89892B808381E003C080E001C07A
:1003600080E0DF91CF9108951F920F920FB60F9208
:1003700011242F933F934F935F936F937F938F93AA
:100380009F93AF93BF93CF93DF93EF93FF93A0918E
:100390008A01B0918B01109709F481C05E968C910F
:1003A0005E9781FF0DC01E96ED91FC911F97908185
:1003B0001D968C911D97982381E071F480E00CC00C
:1003C0001E96ED91FC911F9790811D968C911D9723
:1003D000982381E009F080E0882309F460C05396F7
:1003E000ED91FC915497908155968C9155978095FD
:1003F0008923808356968D919C9157970197F1F7A9
:1004000058966D917C9159971E96CD91DC911F97CE
:100410001D965C911D9738E040E0FB013197F1F7A4
:10042000842F90E095958795482F2881252309F002
:100430004068315091F75E968C915E9781FD4095B2
:100440008091490190E001968F739078992324F46C
:100450000197806C9F6F019620914801281749F001
:10046000E0914901F0E0E65BFE4F40838093490153
:1004700007C05E968C915E9781605E968C935E97C6
:100480005A968D919C915B970197F1F75396ED9158
:10049000FC915497908155968C91892B8083FF9184
:1004A000EF91DF91CF91BF91AF919F918F917F910C
:1004B0006F915F914F913F912F910F900FBE0F90D1
:1004C0001F90189529E331E0FC01318320830E94BD
:1004D000730108951F93CF93DF93EC01162F6E8D58
:1004E0006695617081E06827812F0E94510461E068
:1004F000812F0E941204612F70E0FB01E458FF4F2E
:10050000E491E88BFB01E057FF4FE491F0E0EE0F40
:10051000FF1FE255FF4F859194919A8B898BDF9154
:10052000CF911F9108951F93CF93DF93EC01162F66
:1005300060E0812F0E9412048E8D81FD04C061E075
:10054000812F0E9451041C87612F70E0FB01E45849
:10055000FF4FE491ED87FB01E057FF4FE491F0E09E
:10056000EE0FFF1FEC55FF4F859194919F878E876B
:10057000DF91CF911F9108951F93CF93DF93EC01EB
:10058000162F1B821A8288EE93E0A0E0B0E08C83E5
:100590009D83AE83BF8389E391E0998388831F8A1B
:1005A0001E8A198E188E1B8E1A8E1D8E1C8E8E8D95
:1005B0008E7F20FB81F98E8F642FCE010E946A020C
:1005C000612FCE010E949302DF91CF911F91089578
:1005D000CF93DF93EC019A01AB011B8E1A8E198E1B
:1005E000188E1F8A1E8A60E079E08DE390E00E94F9
:1005F000C10FF9012430310518F0C901039702C079
:1006000081E090E09D8F8C8F8C85863108F041C011
:10061000B901769567956431710518F063517109D8
:1006200002C061E070E07F8B6E8B369720F0B901DD
:100630006550710902C061E070E0798F688FB9017F
:10064000660F771F260F371F369527953695279506
:100650002D30310510F12C50310921C021E08E30B0
:1006600008F420E081E001C0880F2A95EAF7982B72
:10067000909368009C859830D0F09E3010F19631B0
:1006800058F120E030E02AC08D8B8C8D9D8D019734
:10069000F1F7CE010E9489012AC021E030E03B8FB2
:1006A0002A8F909168008830C8F684E0E0CF2DE66C
:1006B00030E03C8B2B8B81E001C0880F9A95EAF7E4
:1006C000E3CF2BE630E03C8B2B8B985081E001C0D0
:1006D000880F9A95EAF7D8CF2CE630E03C8B2B8B2D
:1006E0009E5081E001C0880F9A95EAF7CDCFDF9147
:1006F000CF9108951F920F920FB60F9211242F934E
:100700003F938F939F93AF93BF9380918D0190916F
:100710008E01A0918F01B091900130918C0123E066
:10072000230F2D3720F40196A11DB11D05C026E829
:10073000230F0296A11DB11D20938C0180938D0182
:1007400090938E01A0938F01B093900180919101BD
:1007500090919201A0919301B09194010196A11DF5
:10076000B11D8093910190939201A0939301B09356
:100770009401BF91AF919F918F913F912F910F90D5
:100780000FBE0F901F9018952FB7F89460918D01B0
:1007900070918E0180918F01909190012FBF0895EB
:1007A000789484B5826084BD84B5816084BD85B54C
:1007B000826085BD85B5816085BDEEE6F0E0808113
:1007C000816080830895833069F028F48130B1F02E
:1007D0008230C1F008958730C9F08830E9F0843064
:1007E00001F506C0E0E8F0E080818F77808308950E
:1007F000E0E8F0E080818F7D8083089584B58F7775
:1008000084BD089584B58F7D84BD0895E0EBF0E04C
:1008100080818F7780830895E0EBF0E080818F7D89
:1008200080830895CF93DF9390E0FC01E458FF4F5D
:100830002491FC01E057FF4F8491882379F190E0E7
:10084000880F991FFC01E854FF4FA591B491FC015A
:10085000E255FF4FC591D49161110CC09FB7F89438
:100860008C91E22FE0958E238C932881E223E883FC
:100870009FBF14C0623061F49FB7F8943C91822FFF
:10088000809583238C93E881E22BE8839FBF06C089
:100890008FB7F894EC91E22BEC938FBFDF91CF915F
:1008A00008951F93CF93DF93282F30E0F901E85983
:1008B000FF4F8491F901E458FF4F1491F901E0577B
:1008C000FF4FC491CC23D1F0D62F81110E94E303B6
:1008D000EC2FF0E0EE0FFF1FE255FF4FA591B49112
:1008E0008FB7F894D11106C09C91E12FE095E923D0
:1008F000EC9303C0EC91E12BEC938FBFDF91CF9190
:100900001F910895EF92FF920F931F93CF93DF9360
:10091000C0E0D1E00F2EF4E0EF2EF1E0FF2EF02D3D
:100920008E0161E089910E94120460E0F8018081EB
:100930000E945104CE15DF0599F7DF91CF911F91E9
:100940000F91FF90EF900895E0E8F0E080818083C0
:10095000E1E8F0E080818D608083EFE6F0E0808167
:10096000826080838BE9809388001092890078945C
:1009700008951F920F920FB60F9211240F932F9389
:100980003F934F935F936F937F938F939F93AF9317
:10099000BF93EF93FF938091270290912802A0913B
:1009A0002902B0912A020196A11DB11D8093270250
:1009B00090932802A0932902B0932A0280912702E3
:1009C00090912802A0912902B0912A0284369105C3
:1009D000A105B10509F06DC01092270210922802FE
:1009E0001092290210922A028BB180588BB9209163
:1009F00025024091210250912202609123027091C0
:100A0000240291E0452B09F490E081E0213009F0C7
:100A100080E0892359F181E0672B09F480E0882385
:100A200029F18091260281110DC04091230250913D
:100A3000240201E02FEF33E061E08BE292E00E94BC
:100A4000640F0CC0409121025091220201E02FEF6F
:100A500033E061E08BE292E00E94640F9091260205
:100A600081E0911180E08093260223C090912502BD
:100A7000209123023091240281E0232B09F480E0AD
:100A80008823B9F081E0923009F080E0882389F072
:100A9000409123025091240201E02FEF33E061E006
:100AA0008BE292E00E94640F81E080932602109214
:100AB0002502FF91EF91BF91AF919F918F917F910F
:100AC0006F915F914F913F912F910F910F900FBEBA
:100AD0000F901F901895CF93DF9300D01F92CDB742
:100AE000DEB7209A579A0E94D0030E94A40440E0E7
:100AF00051EE60E070E08BE292E00E94AA0E2FEFD0
:100B000089E698E1215080409040E1F700C0000064
:100B10000E94820411E021E041E0612F8BE292E02B
:100B20000E941F0F2FEF89E698E1215080409040EE
:100B3000E1F700C000001F5F163069F78AEA898379
:100B40008BEB8A838CEC8B83EE24E39400E815E234
:100B500020E030E040E067E481E00E94CA0B23E03F
:100B600030E0AE014F5F5F4F61E084E30E94780B9D
:100B70000E94300C0E943F0CFDCF683E23E07207BC
:100B800090F0640F751F6D3E734078F44115510568
:100B900071F0FC0110820296319610824150510989
:100BA000C1F780E0089581E0089581E0089580E034
:100BB00008952F923F924F925F926F927F928F9201
:100BC0009F92AF92BF92CF92DF92EF92FF920F93DC
:100BD0001F93CF93DF93EC016A01683E33E0730704
:100BE00008F49BC0CB01840F951F8F32944008F00E
:100BF00096C05B01B8EEAB1AB3E0BB0A211119C075
:100C0000452B09F48EC0660F771FFB01EB53F640AE
:100C1000CC0CDD1CCC0EDD1E808191813296988338
:100C20002296DE0111978C93CC16DD06A9F780E0A1
:100C30007DC0213009F077C0452B09F476C0660FDE
:100C4000771FFB01EB53F6407F0111E00F2EF1E01F
:100C50006F2EF2E07F2EF02D0F2EFFEF8F2EF1E0A2
:100C60009F2EF02D0F2EFFE04F2EF2E05F2EF02D85
:100C70000F2EF9E02F2EF2E03F2EF02D88812296E4
:100C8000FE013197608170E0782BD7016D937D93E1
:100C90007D01B9E3AB16B10459F4F10140815181F2
:100CA000012F2FEF33E08BE292E00E94640F2BC004
:100CB000FCE3AF16B10471F4709324026093230235
:100CC000D2018D919C9190932202809321021093E6
:100CD000250219C0BFE3AB16B10421F4E2E0E093B2
:100CE000250211C0F5E3AF16B10469F485B181277F
:100CF00085B9D401ED91FC91E150FF4FD3016C9186
:100D000080810E945104BFEFAB1ABB0AE1E0CE1A0A
:100D1000D10809F0B3CF80E009C081E007C081E0CD
:100D200005C080E003C080E001C080E0DF91CF918A
:100D30001F910F91FF90EF90DF90CF90BF90AF90F9
:100D40009F908F907F906F905F904F903F902F90EB
:100D5000089581E0089581E008958BE292E00E9479
:100D6000A40E08958BE292E00E94620208950F9310
:100D7000862FBA01A901F8949AE090934A0228E0DC
:100D80000E942B0D813041F480E29EE40E94D00D40
:100D9000813021F083E003C083E001C080E07894DB
:100DA0000F910895F89460E081E00E940C0D10927C
:100DB0005202789480E00E94F70C0895F89460E065
:100DC00080E00E940C0D0E94280E78940895CF9325
:100DD000DF93EC01F89420915002309151022330BE
:100DE000310520F1A0915002B0915102109761F0AD
:100DF000E7E9F2E0A956BD4F90E02191920FEA1782
:100E0000FB07D9F7911114C08091970288838091D4
:100E10005002909151020297FA019183808388E9F0
:100E200092E0FB019183808380E003C085E001C0F4
:100E300085E07894DF91CF910895F89490915202D3
:100E4000911142C0FB013197F0934E02E0934D02A5
:100E500021E030E030934C0220934B02808380915C
:100E60004B0290914C02480F591F50934C024093F3
:100E70004B0220914B0230914C02C9010197232B68
:100E800049F0680F791F80E09191890FE617F70705
:100E9000D9F701C080E0819520914B0230914C023E
:100EA000A9014F5F5F4F50934C0240934B02F901F1
:100EB000E956FD4F808381E08093530261E080E03A
:100EC0000E940C0D80E001C085E078940895CF93D6
:100ED000DF931F92CDB7DEB7CE0101960E94710D50
:100EE00080915202813031F008F47DC0823009F4E3
:100EF0005AC089C00E94F50D89818A3341F410924D
:100F00004F02109251021092500280E081C08D3049
:100F100029F482E08093520280E07AC090ED980F2D
:100F20009A3040F09FEB980F963018F499EC980F98
:100F300001C09FEF80914F02882319F08130E9F0C2
:100F400064C020915002309151022F3F310509F0C9
:100F500070F4E0915002F0915102E956FD4F9295E4
:100F6000907F908381E080934F0280E051C0109287
:100F700052020E94280E80E04BC0E0915002F09196
:100F80005102E956FD4F8081982B90838091500249
:100F900090915102019690935102809350021092C9
:100FA0004F0280E035C0898190914A02891308C0C0
:100FB0000E94280E1092520281E00E94F70C28C075
:100FC0008A3369F410924F0210925102109250022B
:100FD00081E0809352020E94F50D80E019C01092CA
:100FE000520280E015C089818A3389F40E94F50D90
:100FF000109251021092500210924F0281E08093A1
:10100000520280E005C080E003C080E001C080E0C3
:101010000F90DF91CF910895CF938091530282304A
:10102000C1F030F4882309F482C0813041F085C0DA
:10103000833009F466C0843009F46CC07EC08AE352
:101040000E946D0D82E08093530210924F02C0E027
:1010500077C080914B0290914C02892B09F449C0D2
:1010600080914F02882319F08130D1F068C0E0915F
:101070004D02F0914E02808182958F708A3010F47B
:10108000805D07C096EF980F963010F4895C01C020
:1010900080E30E946D0D81E080934F02C0E050C05C
:1010A000E0914D02F0914E0280818F708A3010F4F1
:1010B000805D07C096EF980F963010F4895C01C0F0
:1010C00080E30E946D0D80914D0290914E02019639
:1010D00090934E0280934D0210924F0280914B02EA
:1010E00090914C02019790934C0280934B02C0E088
:1010F00027C08DE00E946D0D83E080935302C0E015
:101100001FC080914A020E946D0D84E080935302BB
:10111000C0E016C01092530283E00E94F70CC82F63
:1011200060E081E00E940C0D1092530209C060E063
:1011300081E00E940C0DC0E003C0C0E001C0C0E02F
:101140008C2FCF910895809152028150823010F4FB
:10115000109252020E94280E80E008951F93CF93B0
:10116000DF93EB01288139812530310509F050C02A
:10117000FC01A1812281438150E0542F4427348116
:10118000432BFA013197EF3CF74008F043C0198236
:10119000188231E0EC013883EB01E881F981319666
:1011A000F983E883FA01E770FF27EF2B51F0FA018A
:1011B000F695E795F695E795F695E79511E01E0FFC
:1011C00008C0FA01F695E795F695E795F695E79547
:1011D0001E2FEB01FC011183688179816F5F7F4FC6
:1011E00079836883622F70E07A2B6F5F7F4F20E0F6
:1011F00002960E94A906882319F00E94BC0B0BC01E
:1012000088819981810F911D9983888380E003C033
:1012100083E001C083E0DF91CF911F910895CF93C8
:10122000DF9300D0CDB7DEB7FB01208131812530BF
:10123000310511F5FC0131816281248121111EC02B
:1012400083819FEF980F9E3FD8F01A828F3F19F449
:1012500081E0898301C0198270E0732B6F5F7F4F3B
:1012600021E041E050E0CE0101960E94A9068823CA
:1012700049F00E94BC0B07C083E005C083E003C0B7
:1012800083E001C080E00F900F90DF91CF9108952F
:101290001F93CF93DF93FB012081318126303105ED
:1012A000E8F1FC011181B281438150E0542F4427C1
:1012B0002481422BA5819A0127703327232B49F0E3
:1012C0009A013695279536952795369527952F5F60
:1012D00007C09A0136952795369527953695279517
:1012E000FA013197E03BF740D8F42A131BC0EB0119
:1012F0006B2F70E09B01312BB9016F5F7F4F21E0B5
:1013000006960E94A906882319F00E94BC0B0BC008
:1013100085E090E09983888380E005C083E003C086
:1013200083E001C083E0DF91CF911F9108951F9367
:10133000CF93DF93EB01288139812530310509F006
:101340004FC0FC01A1812281438150E0542F4427EA
:101350003481432BFA013197EF3CF74008F042C04B
:101360001982188232E0EC013883EB01E881F981BF
:101370003196F983E883FA01E770FF27EF2B51F0EC
:10138000FA01F695E795F695E795F695E79511E05C
:101390001E0F08C0FA01F695E795F695E795F695C4
:1013A000E7951E2FEB01FC011183688179816F5F46
:1013B0007F4F79836883622F70E07A2B6F5F7F4F56
:1013C00002960E94AB06882319F00E94BC0B0BC04A
:1013D00088819981810F911D9983888380E003C062
:1013E00083E001C083E0DF91CF911F910895FB015D
:1013F0002081318125303105A1F4FC01618170E04B
:10140000762F66272281622B6F5F7F4F21E041E0BC
:1014100050E003960E94D905882329F00E94BC0B56
:10142000089583E0089580E00895CF93DF93EB0162
:10143000288139812630310550F1FC01A181F281EA
:10144000EC014B8150E0542F44272C81422BED813D
:101450009A012150310928373105D8F4242F220F61
:101460002E1319C0EB016F2F70E07A2B6F5F7F4F47
:1014700021E006960E94D905882319F00E94BC0B32
:101480000BC085E090E09983888380E005C083E00D
:1014900003C083E001C083E0DF91CF9108950F93F3
:1014A0001F93CF93DF93DB012D913C9125303105C4
:1014B00009F03FC0DC011196EC91119712963C9116
:1014C000129714962C911497022F10E0A801415006
:1014D00051094D37510578F5EB011982188243E027
:1014E0004C93488159814F5F5F4F59834883220F46
:1014F00011962C93488159814F5F5F4F59834883E0
:10150000632F70E07E2B6F5F7F4F20E0A801029673
:101510000E94D905882319F00E94BC0B0DC0000F52
:10152000111F88819981080F191F1983088380E092
:1015300003C083E001C083E0DF91CF911F910F9141
:101540000895CF92DF92EF92FF920F931F93CF9364
:10155000DF93FC01DB018D919C910A9708F45EC03A
:10156000E180F280C381D0E0DC2FCC278481C82BBE
:10157000B581A681278140853185CE0101978D37C0
:10158000910508F04DC050E0522BCA0101978937F0
:10159000910508F047C0832F90E09A01220F331F76
:1015A0002817390709F040C08B016F016A2F70E0DE
:1015B0007B2B6F5F7F4F21E0CF010A960E94D905F8
:1015C000811134C0F8011182108287E1D6018C9319
:1015D000808191810196918380838C2F880F119651
:1015E0008C93808191810196918380836F2D70E02F
:1015F0007E296F5F7F4F20E0AE01C60102960E94F8
:10160000D905811113C0CC0FDD1FF80180819181B4
:101610008C0F9D1F9183808380E00AC080E008C00A
:1016200083E006C083E004C083E002C00E94BC0BDC
:10163000DF91CF911F910F91FF90EF90DF90CF90AE
:1016400008950F931F93CF93DF93DB012D913C916E
:101650002530310509F044C0DC011196EC91119759
:1016600012962C91129713960C91139710E0102F4D
:10167000002714963C911497032BA801415051095F
:101680004C37510578F5EB011982188234E03C9310
:10169000488159814F5F5F4F59834883302F330F03
:1016A00011963C93488159814F5F5F4F598348831E
:1016B000622F70E07E2B6F5F7F4FA80102960E9421
:1016C000BD05882319F00E94BC0B0DC0000F111F2F
:1016D00088819981080F191F1983088380E003C04E
:1016E00083E001C083E0DF91CF911F910F910895B6
:1016F000CF93DF93E9012296C032D105F0F48093B5
:10170000560282E090E0909355028093540281E06B
:10171000611101C080E08195809357022115310548
:1017200071F0BA01A90188E592E00E94F80FD09308
:101730005502C093540280E003C084E001C080E001
:10174000DF91CF9108950F931F93CF93DF938B0178
:10175000C0915402D0915502AE0166E572E0019647
:101760000E94F80F2196F801D183C08380E0DF91B9
:10177000CF911F910F910895813021F048F087306B
:1017800019F004C082E0089586E0089584E0089589
:1017900080E00895CF92DF92EF92FF920F931F9314
:1017A000CF939FEF960F973F08F04EC05E2D6801D4
:1017B0007901742F962F182F60938E028130B9F51E
:1017C00022ED36E030938A02209389022EED36E036
:1017D00030938802209387022DE137E030938C020A
:1017E00020938B0227EE36E0309386022093850209
:1017F000109284021092830227E637E0309382022F
:10180000209381022CE038E03093800220937F0205
:1018100023EA38E030937E0220937D02052FA70152
:101820009601672F892F0E94B706C82F01C0C2E01A
:10183000C1110DC00E94F30C882341F010938D025A
:1018400081E08093340103C0C2E001C0C3E08C2F6B
:10185000CF911F910F91FF90EF90DF90CF9008955F
:1018600080913401813049F4E0918902F0918A023B
:1018700009951092340180E0089586E00895CF9391
:10188000DF931F92CDB7DEB780913401811199C0EB
:10189000CE0101960E94FE0C813009F094C089812E
:1018A000813019F08230D9F090C0E0918502F0913A
:1018B000860248E752E06AE772E08CE792E0099519
:1018C000811185C080917C0290918E02891711F060
:1018D00081117FC082E00E94F70C80E080C0A0915F
:1018E0007A02B0917B024C914093770281E0809321
:1018F000760290910401992309F46DC0491759F0BB
:10190000E7E0F1E021E030E09081992309F463C041
:1019100049131AC002C020E030E0F901EE0FFF1FAA
:101920002E0F3F1FF901EC5FFE4F0180F281E02D89
:1019300068E772E0CD0109958093760290917C0270
:10194000911109C080E04BC02F5F3F4F339620318B
:101950003105D1F640C0882319F101C081E0E09142
:101960007A02F0917B0221E030E0309379022093FB
:101970007802909177029068908340917A0250911A
:101980007B022091780230917902B9016F5F7F4F1D
:101990007093790260937802FA01E20FF31F80835B
:1019A000409178025091790260917A0270917B02A5
:1019B000E0918B02F0918C0280918E02099580E07B
:1019C0000EC086E00CC080E00AC080E008C080E065
:1019D00006C080E004C080917C028111BFCF0F90CF
:1019E000DF91CF91089510928F0281E0089591E0E8
:1019F00090938F028093900281E00895FC01909172
:101A00008F02992339F080919002808310928F0287
:101A100081E0089580E00895E1ECF0E09081986421
:101A20009083882321F080818069808305C0E1EC68
:101A3000F0E080818F768083662339F0E1ECF0E07E
:101A40008081886280835D9A0895E1ECF0E0808176
:101A50008F7D808308950F93CF93C22FDB01CA013E
:101A6000880F991FAA1FBB1F880F991FAA1FBB1F92
:101A70009C01AD01220F331F441F551F220F331F3E
:101A8000441F551F60E074E284EF90E00E94C10F94
:101A9000215031093093C5002093C400013021F05A
:101AA000023021F490E203C090E301C090E0C7301F
:101AB00021F0C83019F4966001C09460E2ECF0E0C7
:101AC0008081892B808360E080E00E940C0D559A14
:101AD0005D9881E0CF910F9108958093C60081E0D9
:101AE00008952091C600FC01208381E008951F9293
:101AF0000F920FB60F9211242F933F934F935F9342
:101B00006F937F938F939F93AF93BF93EF93FF93C5
:101B1000E0917F02F09180020995FF91EF91BF91D2
:101B2000AF919F918F917F916F915F914F913F9175
:101B30002F910F900FBE0F901F9018951F920F922C
:101B40000FB60F9211242F933F934F935F936F9390
:101B50007F938F939F93AF93BF93EF93FF93E09106
:101B60008102F09182020995FF91EF91BF91AF91AF
:101B70009F918F917F916F915F914F913F912F91A5
:101B80000F900FBE0F901F9018951F920F920FB6D7
:101B90000F9211245D980F900FBE0F901F90189513
:101BA0009C01A9E0BDE30E94E30F20E23EE440E097
:101BB00050E00E94C10F209395023093960230931B
:101BC0009402209393021092B000E1EBF0E01082B7
:101BD0008081887F8083E0E7F0E080818C7F808354
:101BE00087B3836087BB81E00895109292021092C0
:101BF000B20080919402882389F0E0E7F0E08081D0
:101C00008160808380818D7F808380919402809326
:101C10009102809193028093B30014C0809193024B
:101C2000882381F0E0E7F0E080818260808380811A
:101C30008E7F8083809194028093910280919302A1
:101C40008093B300E1EBF0E08081876080830895AA
:101C5000E1EBF0E08081887F8083E0E7F0E0808145
:101C60008C7F808387B3836087BB08951F920F9218
:101C70000FB60F9211242F933F934F935F936F935F
:101C80007F938F939F93AF93BF93EF93FF93E091D5
:101C90007D02F0917E020995FF91EF91BF91AF9186
:101CA0009F918F917F916F915F914F913F912F9174
:101CB0000F900FBE0F901F9018951F920F920FB6A6
:101CC0000F9211242F933F934F935F936F937F93C2
:101CD0008F939F93AF93BF93EF93FF938091920263
:101CE0008F5F80939202909191028917E0F089139F
:101CF00015C0E0E7F0E080818260808380919302EC
:101D00008093B300A1EBB0E08C91887F8C938081AD
:101D10008E7F808387B3836087BB05C0E0917D029F
:101D2000F0917E020995FF91EF91BF91AF919F9144
:101D30008F917F916F915F914F913F912F910F9074
:101D40000FBE0F901F90189520E04BE06AE00E94B4
:101D5000BC020895411551056105710521F440E06B
:101D600052EC61E070E02FEF35EAEEE021503040B8
:101D7000E040E1F700C000000E94E80208950E94E0
:101D8000BF000895CF93DF93EC01CE010E94BF0EF8
:101D90000196D9F7DF91CF9108956F927F928F923C
:101DA0009F92AF92BF92CF92DF92EF92FF920F93EA
:101DB0001F93CF93DF937C01C62F6A010E94C40357
:101DC0004B015C01D0E0C7010E94EB008C013E0199
:101DD0008C179D0724F0161417047CF020C00E9475
:101DE000C403DC01CB0188199909AA09BB09853F05
:101DF0009140A105B10538F3EECFE6016C0C7D1CD6
:101E0000C114D10429F0C7010E94BF0E888303C00A
:101E1000C7010E94BF0E2196C615D70589F7C801D4
:101E2000DF91CF911F910F91FF90EF90DF90CF90B6
:101E3000BF90AF909F908F907F906F900895FF928A
:101E40000F931F93CF93DF93EC01062F142FF22EE5
:101E50000E94C20E6FEFCE010E940B016FEFCE0108
:101E60000E940B01602FCE010E940B0164E0CE01A5
:101E70000E940B0163E0CE010E940B0168E2CE01DB
:101E80000E940B01612FCE010E940B01115D100F0A
:101E9000612F6095CE010E940B010E3F51F082E050
:101EA000F8120AC040E050E066E0CE010E94CD0E7C
:101EB00005C080E090E002C080E090E0DF91CF912B
:101EC0001F910F91FF900895CF92DF92EF92FF92B2
:101ED0000F931F93CF93DF93EC01C62EE42E152FA3
:101EE000D22EF32E0E94C20E6FEFCE010E940B0184
:101EF0006FEFCE010E940B016C2DCE010E940B01F1
:101F000067E0CE010E940B0163E0CE010E940B014D
:101F10006AE2CE010E940B01612FCE010E940B01EB
:101F20006E2DCE010E940B016F2DCE010E940B0180
:101F30006D2DCE010E940B0164E36C0DD60EED0CED
:101F4000FE0C1F0D612F6095CE010E940B018EEFDC
:101F5000C81649F0023051F440E050E066E0CE018E
:101F60000E94CD0E05C080E090E002C080E090E0CD
:101F7000DF91CF911F910F91FF90EF90DF90CF9065
:101F80000895A1E21A2EAA1BBB1BFD010DC0AA1FBA
:101F9000BB1FEE1FFF1FA217B307E407F50720F0D2
:101FA000A21BB30BE40BF50B661F771F881F991F4D
:101FB0001A9469F760957095809590959B01AC0196
:101FC000BD01CF010895A29FB001B39FC001A39F9F
:101FD000700D811D1124911DB29F700D811D112462
:101FE000911D0895EE0FFF1F0590F491E02D0994C7
:101FF000FB01DC0102C001900D9241505040D8F726
:10200000089510E0C2E6D0E004C0FE010E94F20F85
:0C2010002196C336D107C9F7F894FFCF22
:10201C00120D111311A30B04210B034F0A10150AF7
:10202C0006F70917A10A01AE08050F090F480902A6
:10203C0097090000000000000000000000000000F4
:10204C000000000002000000000B0190008D005702
:08205C0001EB00BF0058010078
:00000001FF
