S00E00004D61737465722E73726563AA
S11300009CC00000C3C00000C1C00000BFC000000D
S1130010BDC00000BBC00000B9C00000B7C00000F4
S1130020B5C00000B3C00000B1C000004DC2000064
S1130030ADC000000C943E0DA9C00000A7C0000094
S1130040A5C00000A3C00000A2C000009FC0000023
S11300509DC000000C94630D99C0000097C000007F
S113006095C0000093C0000091C000008FC0000044
S1130070E2C100000C949C0D0C94910D87C000000B
S113008057C2000083C0000081C000006001640109
S113009054015A017F017F0168016E0174017A01E4
S11300A0E908F20822099109B709EF09150AAD0A0E
S11300B0D80AE00A5C094B0A710A00000001020038
S11300C0090A000000000403080700000000000003
S11300D000000000000000000000010204081020DD
S11300E0408001020408102040800102040810200E
S11300F04080010204081020408002020202020231
S113010002020404040404040404030303030303B5
S1130110030301010101010101010000200023008A
S11301202600290000002200250028002B000000E2
S11301302100240027002A00150D11241FBECFEF33
S1130140D0E4DEBFCDBF11E0A0E0B1E0E4E8FCE123
S113015000E00BBF02C007900D92A030B107D9F7A1
S113016022E0A0E0B1E001C01D92AA34B207E1F799
S113017010E0CDE9D0E004C02197FE010E94280ED2
S1130180CC39D107C9F72ED70C94400E39CF1F9222
S11301900F920FB60F9211242F933F938F939F9337
S11301A0AF93BF938091010190910201A09103014B
S11301B0B09104013091000123E0230F2D3720F486
S11301C00196A11DB11D05C026E8230F0296A11DAD
S11301D0B11D209300018093010190930201A0932B
S11301E00301B09304018091050190910601A0914F
S11301F00701B09108010196A11DB11D809305016D
S113020090930601A0930701B0930801BF91AF91A9
S11302109F918F913F912F910F900FBE0F901F9040
S113022018953FB7F8948091050190910601A0912B
S11302300701B091080126B5A89B05C02F3F19F00E
S11302400196A11DB11D3FBFBA2FA92F982F882752
S1130250820F911DA11DB11DBC01CD01660F771F39
S1130260881F991F660F771F881F991F0895789418
S113027084B5826084BD84B5816084BD85B58260A7
S113028085BD85B5816085BDEEE6F0E08081816045
S11302908083089590E0FC013197EA30F10578F508
S11302A0EA5BFF4F0C94280EE0E8F0E080818F7742
S11302B080830895E0E8F0E080818F7D8083089555
S11302C084B58F7784BD089584B58F7D84BD0895EA
S11302D0E0EBF0E080818F7780830895E0EBF0E03D
S11302E080818F7D80830895E0E9F0E080818F77BD
S11302F080830895E0E9F0E080818F7D8083089514
S1130300CF93DF9390E0FC01E652FF4F2491FC0170
S1130310E650FF4F8491882379F190E0880F991F6C
S1130320FC01E25DFE4FA591B491FC01EC5DFE4F32
S1130330C591D49161110CC09FB7F8948C91E22FB0
S1130340E0958E238C932881E223E8839FBF14C019
S1130350623061F49FB7F8948C91322F30958323E7
S11303608C93E881E22BE8839FBF06C08FB7F89493
S1130370EC91E22BEC938FBFDF91CF9108951F9303
S1130380CF93DF93282F30E0F901E654FF4F849197
S1130390F901E652FF4F1491F901E650FF4FC49161
S11303A0CC23C9F0D62F811175DFEC2FF0E0EE0FCE
S11303B0FF1FEC5DFE4FA591B4918FB7F894D11156
S11303C006C09C91E12FE095E923EC9303C0EC91E6
S11303D0E12BEC938FBFDF91CF911F910895CF93C1
S11303E0DF93282F30E0F901E654FF4F8491F9019F
S11303F0E652FF4FD491F901E650FF4FC491CC234C
S113040089F0811147DFEC2FF0E0EE0FFF1FE65E6D
S1130410FE4FA591B491EC91ED2381E090E021F49D
S113042080E002C080E090E0DF91CF910895862FB4
S11304300C94F10D08951F920F920FB60F92112490
S11304400BB60F922F933F934F935F936F937F93CA
S11304508F939F93AF93BF93EF93FF936091CE00DD
S113046080EE91E09FD6FF91EF91BF91AF919F9164
S11304708F917F916F915F914F913F912F910F9049
S11304800BBE0F900FBE0F901F9018951092B200E4
S113049010920901E1EBF0E0808185608083E0E760
S11304A0F0E080818160808308951092B200109200
S11304B00901E0E7F0E080818E7F80830895109247
S11304C0B20010920901089578941F920F920FB60A
S11304D00F9211240BB60F922F933F934F935F9378
S11304E06F937F938F939F93AF93BF93EF93FF93F8
S11304F0809109018F5F803518F48093090105C04C
S11305001092090180EE91E0ADD5FF91EF91BF917A
S1130510AF919F918F917F916F915F914F913F9197
S11305202F910F900BBE0F900FBE0F901F90189538
S11305301F920F920FB60F9211240BB60F922F93A6
S11305403F934F935F936F937F938F939F93AF9357
S1130550BF93CF93DF93EF93FF93CAE0D1E08981F8
S11305603EDF2D813E812F5F3F4F3E832D839C8153
S1130570953618F096E090930A0190910A01943010
S113058009F45AC028F4923051F09330B9F18AC07A
S1130590953009F47AC0963009F47EC083C0811185
S11305A09DC080910F01909110018436910528F42B
S11305B01092100110920F0196C0AAE0B1E01092BF
S11305C0DB0114961C9214971496EC91149781E015
S11305D08E0F14968C931497F0E015968D919C9140
S11305E01697EE0FFF1FE65FFE4F908787831696E0
S11305F01C921E92159783E08C9375C0813009F08C
S113060051C0AAE0B1E01496EC9114978E0F1496A1
S11306108C931497F0E015968D919C911697EE0F9C
S1130620FF1FE65FFE4F9087878316961C921E92EB
S1130630159784E08C9352C081111CC0AAE0B1E0EC
S11306401496EC91149781E08E0F14968C93149762
S1130650F0E015968D919C911697EE0FFF1FE65FC3
S1130660FE4F9087878316961C921E92159783E0FF
S11306708C9339C080910F019091100185369105BA
S113068068F185E080930A0129C0811127C0109286
S1130690100110920F0127C091E09093DB0195E0C7
S11306A090930A0190910D01992309F181110BC0D6
S11306B080910C01882329F080910C0161E05FDEB8
S11306C016C02D9A14C080910C01882329F08091C2
S11306D00C0160E054DE0BC02D9809C080910D011F
S11306E08111F1CF04C080910D018111E1CFFF91FF
S11306F0EF91DF91CF91BF91AF919F918F917F91B6
S11307006F915F914F913F912F910F900BBE0F907E
S11307100FBE0F901F901895CF93DF93EB011092AB
S1130720710061E086E0ECDD60E086E028DE9E0199
S1130730DD0F440B550B60E47FE180E090E00E9404
S1130740060E82E08093900081E1809391003093C3
S1130750970020939600ABEABAEA0E94310E969570
S113076087959093990080939800DF91CF91089595
S11307708F929F92AF92BF92CF92DF92EF92FF92AD
S11307804530510561057105F8F06A017B0149DDC9
S11307904B015C0184E0C81AD108E108F108C80CD7
S11307A0D91CEA1CFB1CC814D904EA04FB0430F469
S11307B038DD86169706A806B906D0F332DD6C1527
S11307C07D058E059F05D0F3FF90EF90DF90CF90CD
S11307D0BF90AF909F908F9008959C01E0E9F0E066
S11307E09081906890836115710529F0C901AB016E
S11307F060E070E0BDCF08959C01E0E9F0E09081F5
S11308009F7790836115710529F0C901AB0160E000
S113081070E0AECF08958F929F92AF92BF92CF9225
S1130820DF92EF92FF92CF93DF93EC014A015B01D9
S1130830790166E270E070DF68E273E2CE01CDDF39
S113084064E971E1CE01D8DFC7010197C12CD12C35
S11308507601C39404C0CC0CDD1CEE1CFF1C8A95ED
S1130860D2F7C114D104E104F10421F1D501C4018A
S11308708C219D21AE21BF21892B8A2B8B2B49F002
S113088060E372E0CE01A9DF6AE976E0CE01B4DF6D
S113089008C060E372E0CE01A0DF60E372E0CE0145
S11308A0ABDFF694E794D794C794C114D104E10460
S11308B0F104E1F660E372E0CE018FDF60E070E006
S11308C0CE019ADFDF91CF91FF90EF90DF90CF9030
S11308D0BF90AF909F908F900895CF93DF93C82FD0
S11308E0C6DCDC2FDD0FDD0FDC0FD03208F4D0E2E4
S11308F0C0E020E230E04DE952E66FEF70E08CEDAD
S113090091E089DF2FE782E392E02150804090401C
S1130910E1F700C0000020E230E047E958E66FEF5D
S113092070E08CED91E077DF2FE782E392E02150D5
S113093080409040E1F700C00000CF5FDC17C8F6AC
S1130940DF91CF910895CF93C1E220E230E04DE9E9
S113095052E66FEF70E08CED91E05DDF2FE782E30C
S113096092E0215080409040E1F700C0000020E276
S113097030E047E958E66FEF70E08CED91E04BDF33
S11309802FE782E392E0215080409040E1F700C0DD
S11309900000C150D1F6CF910895CF93DF93D82FA3
S11309A0813208F0D0E2613001F118F06230C9F10F
S11309B053C020E230E04FE650E96FEF70E08CED79
S11309C091E029DF2FE782E392E0215080409040BC
S11309D0E1F700C0000020E230E04FEC50E36FEF9D
S11309E070E08CED91E017DF37C020E230E04FE695
S11309F050E96FEF70E08CED91E00DDF2FE782E3BB
S1130A0092E0215080409040E1F700C0000020E2D5
S1130A1030E047EE58E16FEF70E08CED91E0FBDEE3
S1130A201BC020E230E04FE650E96FEF70E08CED40
S1130A3091E0F1DE2FE782E392E021508040904084
S1130A40E1F700C0000020E230E045E85AE76FEF2C
S1130A5070E08CED91E0DFDE2FE782E392E021503D
S1130A6080409040E1F700C0000020E230E04FE613
S1130A7050E96FEF70E08CED91E0CDDEC0E020E254
S1130A8030E047E658E96FEF70E08CED91E0C3DEAB
S1130A902FE782E392E0215080409040E1F700C0CC
S1130AA00000CF5FDC1758F7DF91CF91089560E025
S1130AB074CF089520E737E140E065E085E490E0F5
S1130AC075D641E068E086E490E0AFD541E06AE0A5
S1130AD086E490E0AAD541E065E086E490E0A5D5FF
S1130AE041E06EE086E490E0A0D541E062E086E477
S1130AF090E09BD541E061E086E490E096D541E04A
S1130B006CE086E490E091C508950F9360E070E096
S1130B10CB017AD728E53BE140E065E085E490E04D
S1130B2045D62FEF4DE250E060E088E490E08FD6A8
S1130B3088E490E02BD760ED71E081E090E064D729
S1130B4088E490E042D768EB72E881E090E05CD7FB
S1130B502FEF49E150E060E088E490E078D62FEF91
S1130B6049E150E061E088E490E071D601E026E6D6
S1130B704FEF6FEF88E490E0B3D620EA3FE04FE711
S1130B8064E085E490E012D668E87AE881E090E0D9
S1130B903BD720EA3FE04FE762E085E490E006D6E9
S1130BA04CE152E06EEC72E086E4AAD560E77EE8A0
S1130BB081E090E029D728E53BE14FE766E185E451
S1130BC090E0F4D54CE152E06EEC72E086E498D506
S1130BD040E065E086E490E028D540E06EE086E4FD
S1130BE090E023D540E062E086E490E01ED540E04A
S1130BF061E086E490E019D540E06CE086E490E0A2
S1130C0014D560EB7DEA81E090E0FED641E065E03A
S1130C1086E490E00AD541E06EE086E490E005D5F4
S1130C2041E062E086E490E000D541E061E086E4E2
S1130C3090E0FBD441E06CE086E490E0F6D442E539
S1130C4052E062E086E426D52FEF8FE493EC215046
S1130C5080409040E1F700C000004EEE52E062E0B8
S1130C6086E418D52FEF8FE493EC21508040904018
S1130C70E1F700C0000046EB52E062E086E40AD5EA
S1130C8068E77DE582E090E0BFD642E552E062E0AD
S1130C9086E400D52FEF8FE493EC21508040904000
S1130CA0E1F700C000004EEE52E062E086E4F2D4C8
S1130CB02FEF8FE493EC215080409040E1F700C087
S1130CC0000046EB52E062E086E4E4D468EA72EDA8
S1130CD082E090E099D628E833E14FE760E085E4CC
S1130CE090E064D54EEE52E062E086E4D3D460ED49
S1130CF075EF82E090E088D620E040E06CEC88E478
S1130D0090E0EED526E94AE550E060E088E490E022
S1130D109ED520E737E140E060E085E490E046D5E9
S1130D2020E737E140E064E085E490E03FD520E748
S1130D3037E140E062E085E490E038D568EB79EF94
S1130D4082E090E061D686E412D560E67EED82E032
S1130D5090E05AD626E940E050E060E088E490E074
S1130D6076D526E940E050E061E088E490E06FD574
S1130D7041E06DE086E490E058D460E373E683E0FC
S1130D8090E042D600E020E040E06CEC88E490E0A3
S1130D90A7D52FEF87EA91E6215080409040E1F7F4
S1130DA000C0000001E020E040E06CEC88E490E04A
S1130DB097D52FEF83ED90E3215080409040E1F7E9
S1130DC000C0000000E020E040E06CEC88E490E02B
S1130DD087D52FEF87EA91E6215080409040E1F7D4
S1130DE000C0000060ED72E783E090E00DD601E002
S1130DF020E040E06CEC88E490E072D528E833E130
S1130E0044E666E185E490E0D1D448EA52E066E243
S1130E1072E087E475D460E172E983E090E0F4D590
S1130E2020E737E144E662E085E490E0BFD428E8B7
S1130E3033E14FE762E085E490E0B8D44CE152E05E
S1130E406EEC72E086E45CD468E07DEB83E090E0D5
S1130E50DBD586E48CD448EA52E066E272E087E4AB
S1130E604FD468E47CED83E090E0CED587E47FD472
S1130E704CE152E06EEC72E086E442D460EB7EE139
S1130E8084E090E0C1D586E472D448EA52E066E298
S1130E9072E087E435D468ED71E484E090E0B4D581
S1130EA087E465D44CE152E06EEC72E086E428D429
S1130EB068E875EF84E090E0A7D586E458D420E094
S1130EC04CEC6FEF88E490E00BD548EA52E066E220
S1130ED072E087E415D460E377E585E090E094D58B
S1130EE087E445D44CE152E06EEC72E086E408D429
S1130EF060E47EE785E090E087D586E438D448EA6C
S1130F0052E066E272E087E4FBD368E071EB85E0CF
S1130F1090E07AD587E42BD44CE152E06EEC72E099
S1130F2086E4EED368EC7EE086E090E06DD586E45E
S1130F301ED448EA52E066E272E087E4E1D368E94D
S1130F4076E186E090E060D52FEF4CEC60E088E439
S1130F5090E0C6D441E064E087E490E066D348EAD8
S1130F6052E066E272E087E4CBD360EE77E886E095
S1130F7090E04AD528E53BE14FE766E185E490E05F
S1130F8015D460EE77E886E090E03ED541E068E075
S1130F9086E490E04AD344EA51E064E086E47AD3FC
S1130FA060E076ED86E090E02FD528E53BE140E077
S1130FB062E085E490E0FAD328E53BE140E066E1B5
S1130FC085E490E0F3D328E53BE14FE765E085E471
S1130FD090E0ECD34EE852E064E086E45BD3B3DC0B
S1130FE00F91089514D32FEF87EA91E621508040A2
S1130FF09040E1F700C000008FE06FDC28E53BE1A2
S11310004FE765E085E490E0D1D384B18E6184B983
S113101081B1806981B9179A149A85E490E0F8D374
S1131020811101C0299A46DD04D584E140DD6DDDDE
S1131030FACFCF93DF93EC010B96E6D21882198690
S11310401A861F821886DF91CF910895FC0181854D
S11310500895FC0182850895FC0117821286118689
S113106024CA0895F9CF089580ED860F8A3040F0A0
S11310708FEB860F863018F489EC860F089580E094
S11310800895862F8F708A3010F4805D0895895CEE
S113109008951F93CF93DF93EC01162F70E075959D
S11310A06795759567957595679575956795E9DF66
S11310B0682FCE01BCD9612FCE01E3DF682FCE01AA
S11310C0B6D98881180F1883DF91CF911F910895A5
S11310D01F93CF93DF93EC01162F672FDADF612F75
S11310E0CE01D7DFDF91CF911F910895DF92EF9268
S11310F0FF920F931F93CF93DF93EC01D62E7A01C7
S113110018821A8680E18A8369838E01055F1F4FE6
S1131110C8016AD290E09C838B83FE82ED826AE3ED
S1131120CE0185D96D2DCE01B4DF60E1CE01B1DFF2
S1131130B70161507109CE01CBDFC80155D2682FC8
S113114070E0CE01C5DFC8014FD2682F660FCE0113
S1131150A0DFF12CC80148D2F81668F4EF2DF0E0B6
S11311603696EE0FFF1FEC0FFD1F60817181CE01DB
S1131170AFDFF394EFCF68816195CE018ADF6DE034
S1131180CE0155D96AE0CE0152D91F8281E0898708
S1131190CE017CD9DF91CF911F910F91FF90EF90F9
S11311A0DF9008950F931F93CF93DF93FC01218564
S11311B0222309F411C2162FEC0181D9EF818E2F5D
S11311C090E08D30910508F007C2FC01E05BFF4F11
S11311D03FC51A3309F000C281E08F83188610924C
S11311E0DF01FAC1888581110EC0612FCE013CDF79
S11311F0F0E18F9FC00111249093DE018093DD0103
S113120081E08887E9C1612FCE012EDF2091DD01C5
S11312103091DE01A901482BCA019093DE0180932D
S1131220DD011886298130E08217930741F492E0AA
S11312309F839091DF01890F8093DF01CDC1CE019F
S11312400BDFCAC1888581110EC0612FCE010CDF6E
S113125050E1859FC00111249093DE018093DD014C
S113126081E08887B9C1612FCE01FEDE2091DD01C6
S11312703091DE01F901E82BCF019093DE018093D8
S1131280DD0118862A8130E08217930791F42091BA
S1131290DF01280F2093DF018031910519F483E0E9
S11312A08F839AC10397029708F096C18AE08F83CF
S11312B093C1CE01D1DE90C1888581110EC0612F0A
S11312C0CE01D2DEF0E18F9FC00111249093DE01A4
S11312D08093DD0181E088877FC1612FCE01C4DE68
S11312E02091DD013091DE01A901482BCA019093C0
S11312F0DE018093DD0118862B813C81220F331F90
S11313008217930759F49091DF01890F8093DF01CD
S11313108BE08F83CE010B9664D15EC1CE019CDE3F
S11313205BC1888581110CC0612FCE019DDE829541
S1131330807F1092DD018093DE0181E088874CC1BB
S1131340612FCE0191DE2091DD013091DE01F901A2
S1131350F82BCF01F093DE01E093DD01188684E0E1
S11313608F838091DF01890F8093DF0135C18885E8
S1131370811114C0612FCE0177DEF0E18F9FC0018F
S113138011242091DD013091DE01822B932B909367
S1131390DE018093DD0181E088871EC1612FCE01CB
S11313A063DE2091DD013091DE01A901482BCA01E1
S11313B09093DE018093DD0118864F5F5F4F2D818E
S11313C03E814217530741F495E09F839091DF01DA
S11313D0890F8093DF0100C1CE013EDEFDC0888508
S11313E081110CC0612FCE013FDE8295807F109267
S11313F0DD018093DE0181E08887EEC0612FCE019C
S113140033DE2091DD013091DE01F901F82BCF01AB
S1131410F093DE01E093DD01188686E08F838091EE
S1131420DF01890F8093DF01D7C08885811114C043
S1131430612FCE0119DEF0E18F9FC00111242091AC
S1131440DD013091DE01822B932B9093DE0180939A
S1131450DD0181E08887C0C0612FCE0105DE2091C7
S1131460DD013091DE01A901482BCA019093DE0110
S11314708093DD0118862B813C818217930741F408
S113148097E09F839091DF01890F8093DF01A4C0CF
S1131490CE01E2DDA1C0888581110CC0612FCE018F
S11314A0E3DD8295807F1092DD018093DE0181E08F
S11314B0888792C0612FCE01D7DD2091DD01309164
S11314C0DE01F901F82BCF01F093DE01E093DD0199
S11314D018868CE08F838091DF01890F8093DF0170
S11314E07BC08885811114C0612FCE01BDDDF0E180
S11314F08F9FC00111242091DD013091DE01822BE8
S1131500932B9093DE018093DD0181E0888764C092
S1131510612FCE01A9DD6091DD017091DE01682BA0
S11315207093DE016093DD0118868091DF01860FE0
S11315308093DF018E01055F1F4FC80158D0C80199
S113154053D090E02B813C818217930718F087E0F9
S11315508F8342C08BE08F833FC0888581110EC08A
S1131560612FCE0181DD20E1829FC001112490937F
S1131570DE018093DD0181E088872EC0612FCE01DA
S113158073DD2091DD013091DE01282B3093DE01E3
S11315902093DD0118868091DF01819590E0281762
S11315A0390719F488E08F8317C0CE0155DD14C0C4
S11315B01D3019F489E08F830FC0CE014DDD0CC0BE
S11315C01A3041F41F8281E08A871986CE010E9475
S11315D0550202C0CE0140DDDF91CF911F910F91E2
S11315E00895FC0110820895FC0180810895DC01B6
S11315F09C91E92FF0E0EE0FFF1FEA0FFB1F7283AF
S113160061839F5F9C930895FC011082089587E68F
S113161090E0C1D278942FEF81EE94E02150804085
S11316209040E1F700C0000008951F93CF93DF932B
S1131630182FD62FC42F80EE91E008DD8111FBCF47
S11316408BEE91E0CEDF6D2F70E08BEE91E0CFDF7B
S11316506C2F70E08BEE91E0CADF4DE154E0612F16
S113166080EE91E043DD80EE91E0F0DC8111FBCF70
S11316704DE154E0612F80EE91E038DD80EE91E0A1
S1131680E5DC8111FBCF80EE91E0E3DCDF91CF91CB
S11316901F9108950F931F93CF93DF93D82FC62FD5
S11316A08A0180EE91E0D2DC8111FBCF8BEE91E0D8
S11316B098DF6C2F70E08BEE91E099DFB8018BEE30
S11316C091E095DF41E254E06D2F80EE91E00EDD74
S11316D080EE91E0BBDC8111FBCF41E254E06D2F41
S11316E080EE91E003DD80EE91E0B0DC8111FBCF70
S11316F080EE91E0AEDCDF91CF911F910F910895C0
S1131700EF92FF920F931F93CF93C82F7B018A010F
S113171080EE91E09BDC8111FBCF8BEE91E061DFE9
S1131720B7018BEE91E063DFB8018BEE91E05FDFF0
S113173044E254E06C2F80EE91E0D8DC80EE91E03E
S113174085DC8111FBCF44E254E06C2F80EE91E004
S1131750CDDC80EE91E07ADC8111FBCF80EE91E06C
S113176078DCCF911F910F91FF90EF900895CF9364
S1131770C82F80EE91E06ADC8111FBCF8BEE91E003
S113178030DF6FE370E08BEE91E031DF47E254E04D
S11317906C2F80EE91E0AADC80EE91E057DC8111A1
S11317A0FBCF80EE91E055DCCF910895EF92FF924C
S11317B01F93CF93DF93182FC62FD42F790180EE78
S11317C091E044DC8111FBCF8BEE91E00ADFB7019D
S11317D08BEE91E00CDF6D2F70E08BEE91E007DF74
S11317E04C2F50E04C505E4F440F551F612F80EE3C
S11317F091E07CDC80EE91E029DC8111FBCF80EE6E
S113180091E027DCDF91CF911F91FF90EF90089535
S1131810CF93C82F80EE91E019DC8111FBCF8BEEC2
S113182091E0DFDE60E070E08BEE91E0E0DE48E026
S113183054E06C2F80EE91E059DC80EE91E006DC00
S11318408111FBCF80EE91E004DCCF910895EF92FB
S1131850FF921F93CF93DF93D82F162F7A01C22FB5
S113186080EE91E0F3DB8111FBCF8BEE91E0B9DEEA
S1131870112319F0113039F00BC066E170E08BEEE2
S113188091E0B5DE05C061E270E08BEE91E0AFDE81
S1131890B7018BEE91E0ABDE6C2F70E08BEE91E044
S11318A0A6DE43EF53E06D2F80EE91E01FDC80EE67
S11318B091E0CCDB8111FBCF43EF53E06D2F80EE41
S11318C091E014DC80EE91E0C1DB8111FBCF80EE6E
S11318D091E0BFDBDF91CF911F91FF90EF900895CE
S11318E0FF920F931F93CF93DF93F82E162FD42FCD
S11318F0C22F80EE91E0AADB8111FBCF8BEE91E049
S113190070DE612F70E08BEE91E071DE6D2F70E080
S11319108BEE91E06CDE6C2F70E08BEE91E067DE75
S1131920013051F018F0023069F011C061E070E04C
S11319308BEE91E05CDE0BC062E070E08BEE91E038
S113194056DE05C063E070E08BEE91E050DE49EFB7
S113195053E06F2D80EE91E0C9DB80EE91E076DB01
S11319608111FBCF49EF53E06F2D80EE91E0BEDB98
S113197080EE91E06BDB8111FBCF80EE91E069DBBF
S1131980DF91CF911F910F91FF900895CF93C82FAE
S113199080EE91E05BDB8111FBCF8BEE91E021DEE9
S11319A060E070E08BEE91E022DE47EF53E06C2FB5
S11319B080EE91E09BDB80EE91E048DB8111FBCF70
S11319C080EE91E046DBCF910895CF93C82F80EE4F
S11319D091E03CDB8111FBCF8BEE91E002DE60E015
S11319E070E08BEE91E003DE48EF53E06C2F80EE65
S11319F091E07CDB80EE91E029DB8111FBCF80EE6E
S1131A0091E027DBCF910895CF92DF92EF92FF927E
S1131A106B017C012AD06C157D058E059F05D0F3E2
S1131A20FF90EF90DF90CF90089580EE91E001CB8E
S1131A300895E1E8F0E0808188608083AFE6B0E05B
S1131A408C9182608C9380818360808389EF809302
S1131A5088001092890010920002109201021092E4
S1131A60020210920302789408956091000270912A
S1131A700102809102029091030208951F920F9235
S1131A800FB60F9211248F939F93AF93BF938091BE
S1131A90000290910102A0910202B091030201960A
S1131AA0A11DB11D8093000290930102A093020234
S1131AB0B0930302BF91AF919F918F910F900FBE8E
S1131AC00F901F9018951F920F920FB60F9211242A
S1131AD00BB60F928F939F93EF93FF9390912902EC
S1131AE080912802981769F0E0912802EF5FEF7166
S1131AF0E0932802F0E0E65DFD4F80818093C6000C
S1131B0005C0E1ECF0E080818F7D8083FF91EF914F
S1131B109F918F910F900BBE0F900FBE0F901F904F
S1131B2018951F920F920FB60F9211245E980F9082
S1131B300FBE0F901F9018951F920F920FB60F9221
S1131B4011240BB60F928F939F93EF93FF93909171
S1131B50070280910602981771F0E0910602EF5F88
S1131B60EF71E09306025E9AF0E0E85FFD4F80813A
S1131B708093CE0005C0E9ECF0E080818F7D808306
S1131B80FF91EF919F918F910F900BBE0F900FBE1D
S1131B900F901F901895569A5E9810920702109213
S1131BA006021092050210920402992324F422E002
S1131BB02093C8009F779093CD008093CC00E9ECEC
S1131BC0F0E088E98083808180648083EAECF0E03F
S1131BD086E08083808180638083808186608083C7
S1131BE00895209107022F5F2F7190910602291703
S1131BF0E1F3E22FF0E0E85FFD4F808320930702DA
S1131C00E9ECF0E08081806280830895A1E21A2EDD
S1131C10AA1BBB1BFD010DC0AA1FBB1FEE1FFF1F8C
S1131C20A217B307E407F50720F0A21BB30BE40BDC
S1131C30F50B661F771F881F991F1A9469F7609523
S1131C407095809590959B01AC01BD01CF010895DD
S1131C50EE0FFF1F0024001C0BBE0790F691E02D31
S1131C600994A29FB001B39FC001A39F700D811D71
S1131C701124911DB29F700D811D1124911D089591
S1071C80F894FFCF02
S9030000FC
