:10000000B4C00000DCC00000DAC00000D8C00000AE
:10001000FCC10000FAC10000F8C10000F6C10000F8
:10002000CEC00000CCC00000CAC000005BC500000C
:10003000C6C000000C945812C2C00000C0C000002E
:10004000BEC00000BCC0000095C30000B8C00000E6
:10005000B6C000000C947D12B2C00000B0C0000019
:10006000AEC00000ACC00000AAC00000A8C00000E4
:10007000F0C400000C94B6120C94AB12A0C00000A7
:100080009EC000009CC000009AC00000AE04B204F4
:100090008A049004B504B50496049C04A204A80440
:1000A000E70BF00B200C8F0CB50CED0C130DAB0D0A
:1000B000D60DDE0D5A0C490D6F0D760E900EB50E55
:1000C000410EB50E4C0EAA0EC00EB50EB50EB50EF5
:1000D000B50EB50EB50EB50EB50EC00EB50EB50EFD
:1000E000B50EB50EB50E0000000203000A0B0000AD
:1000F00000000504090800000000000000000000E6
:1001000000000000000001020408102040800102ED
:1001100004081020408001020408102040800102E1
:1001200004081020408002020202020202020404BB
:10013000040404040404030303030303030301018D
:100140000101010101010000200023002600290017
:1001500000002200250028002B00000021002400C0
:1001600027002A00EF0A2F12120B11241FBECFEF17
:10017000D0E4DEBFCDBF11E0A0E0B1E0EEEAF6E2F0
:1001800000E00BBF02C007900D92AC31B107D9F768
:1001900022E0ACE1B1E001C01D92AC31B207E1F761
:1001A00010E0C4EBD0E004C02197FE010E9442138E
:1001B000C23BD107C9F70E94AD0A0C944B1320CF64
:1001C00080E090E00895CF92DF92EF92FF920F933C
:1001D0001F93CF93DF9341155105C1F06A018C0144
:1001E000E62EF72EC0E0D0E0D7016D917D01D80159
:1001F000ED91FC910190F081E02DC8010995892BCA
:1002000039F02196CC16DD0679F702C0C0E0D0E0C7
:10021000CE01DF91CF911F910F91FF90EF90DF9072
:10022000CF90089520915E0130915F012817390722
:10023000F9F490911C0180911D019817E1F0E09173
:100240001C01F0E0E25EFE4F808120911C0130E055
:100250002F5F3F4F2F733078332334F4215031090F
:10026000206C3F6F2F5F3F4F20931C0190E008955B
:100270008FEF9FEF08958FEF9FEF089520915E011C
:1002800030915F0128173907B1F420911D01809149
:100290001C0130E0205C3F4F281B31092F73307860
:1002A000332334F421503109206C3F6F2F5F3F4FCF
:1002B000822F932F089580E090E008951F93CF93AD
:1002C000DF93EC014C8D5D8D4115510529F481E0E2
:1002D00090E09B838A8338C0A989BA898889382F9E
:1002E00030951FB79E8D792F727091FD6095F894AF
:1002F000772321F09C91982B9C9303C09C9193238E
:100300009C93FA013197F1F798E060FF04C02C91BB
:10031000282B2C9303C02C9123232C93FA01319783
:10032000F1F76695915089F7772321F08C91382366
:100330003C9303C09C91892B8C931FBF8C8D9D8D0A
:100340000197F1F741E050E0CA01DF91CF911F9191
:100350000895089520915E0130915F0128173907B3
:1003600071F490911C0180911D01981759F0E09152
:100370001C01F0E0E25EFE4F808190E008958FEF77
:100380009FEF08958FEF9FEF0895E0915E01F09148
:100390005F01E817F90769F4A389B4899C918589FD
:1003A000809589238C9310925F0110925E0181E009
:1003B000089580E00895CF93DF93EC018A8D9B8DA3
:1003C000892BE9F080915E0190915F01C817D907F0
:1003D000C1F0009709F0D9DF8E8D8E7F8E8F10923D
:1003E0001D0110921C01D0935F01C0935E01EB8947
:1003F000FC8990818D89892B808381E003C080E016
:1004000001C080E0DF91CF9108951F920F920FB647
:100410000F9211240BB60F922F933F934F935F933C
:100420006F937F938F939F93AF93BF93CF93DF93FC
:10043000EF93FF93A0915E01B0915F01109709F4D3
:1004400081C05E968C915E9781FF0DC01E96ED91E6
:10045000FC911F9790811D968C911D97982381E0A8
:1004600071F480E00CC01E96ED91FC911F97908175
:100470001D968C911D97982381E009F080E08823D8
:1004800009F460C05396ED91FC9154979081559674
:100490008C91559780958923808356968D919C9158
:1004A00057970197F1F758966D917C9159971E9641
:1004B000CD91DC911F971D965C911D9738E040E02F
:1004C000FB013197F1F7842F90E095958795482FA0
:1004D0002881252309F04068315091F75E968C9170
:1004E0005E9781FD409580911D0190E001968F738C
:1004F0009078992324F40197806C9F6F0196209146
:100500001C01281749F0E0911D01F0E0E25EFE4F6A
:10051000408380931D0107C05E968C915E97816039
:100520005E968C935E975A968D919C915B970197FE
:10053000F1F75396ED91FC915497908155968C91DB
:10054000892B8083FF91EF91DF91CF91BF91AF9184
:100550009F918F917F916F915F914F913F912F91DB
:100560000F900BBE0F900FBE0F901F9018952EE0AE
:1005700031E0FC013183208308CF08951F93CF938E
:10058000DF93EC01162F6E8D6695617081E0682710
:10059000812F2BD261E0812FE9D1812F90E0FC01E6
:1005A000EA5FFE4FE491E88BFC01EA5DFE4FE491C7
:1005B000F0E0EE0FFF1FE05BFE4F859194919A8B68
:1005C000898BDF91CF911F9108951F93CF93DF9374
:1005D000EC01162F60E0812FC9D18E8D81FD03C003
:1005E00061E0812F02D21C87612F70E0FB01EA5F7E
:1005F000FE4FE491ED87FB01EA5DFE4FE491F0E0F0
:10060000EE0FFF1FEA5BFE4F859194919F878E87C7
:10061000DF91CF911F9108951F93CF93DF93EC014A
:10062000162F1B821A8288EE93E0A0E0B0E08C8344
:100630009D83AE83BF838EE091E0998388831F8A78
:100640001E8A198E188E1B8E1A8E1D8E1C8E8E8DF4
:100650008E7F20FB81F98E8F642FCE018FDF612F7B
:10066000CE01B3DFDF91CF911F910895CF93DF9338
:10067000EC019A01AB011B8E1A8E198E188E1F8AFF
:100680001E8A60E079E08DE390E00E942013F9017A
:100690002430310518F0C901039702C081E090E0D1
:1006A0009D8F8C8F8C85803208F054C0B90176956F
:1006B00067956431710518F06351710902C061E0FA
:1006C00070E07F8B6E8B369720F0B9016550710911
:1006D00002C061E070E0798F688FB901660F771F03
:1006E000260F371F36952795369527952D303105DE
:1006F000A0F12C50310933C0803120F0883120F036
:1007000081E003C088E001C084E0982B90936800EA
:100710008C85883038F0803140F0883148F02BE605
:1007200030E008C02CE630E005C023E730E002C02E
:100730002DE630E03C8B2B8B877021E030E0A90167
:1007400002C0440F551F8A95E2F74D8B8C8D9D8D0D
:100750000197F1F7CE012FDE0AC021E030E03B8F98
:100760002A8F90916800883038F682E0CECFDF91F2
:10077000CF9108951F920F920FB60F9211242F93CD
:100780003F938F939F93AF93BF9380916501909117
:100790006601A0916701B09168013091640123E086
:1007A000230F2D3730F026E8230F0296A11DB11D2F
:1007B00003C00196A11DB11D2093640180936501C2
:1007C00090936601A0936701B093680180916001E6
:1007D00090916101A0916201B09163010196A11D08
:1007E000B11D8093600190936101A0936201B09369
:1007F0006301BF91AF919F918F913F912F910F9086
:100800000FBE0F901F9018952FB7F8946091650157
:100810007091660180916701909168012FBF0895E2
:100820003FB7F8948091600190916101A0916201BD
:10083000B091630126B5A89B05C02F3F19F0019622
:10084000A11DB11D3FBFBA2FA92F982F8827820F56
:10085000911DA11DB11DBC01CD01660F771F881F21
:10086000991F660F771F881F991F08958F929F9277
:10087000AF92BF92CF92DF92EF92FF926B017C0119
:10088000CFDF4B015C01C114D104E104F10489F410
:1008900021C021E0C21AD108E108F10888EE880ED3
:1008A00083E0981EA11CB11CC114D104E104F10421
:1008B00089F0B6DFDC01CB0188199909AA09BB09C7
:1008C000883E9340A105B10520F7C114D104E1048D
:1008D000F10479F7FF90EF90DF90CF90BF90AF9049
:1008E0009F908F900895789484B5836084BD85B57A
:1008F000836085BDEEE6F0E08081816080830895AD
:1009000090E0FC013297EA30F10578F5EA5BFF4FA1
:100910000C944213E0E8F0E080818F7780830895A3
:10092000E0E8F0E080818F7D80830895E0EBF0E0E7
:1009300080818F7780830895E0EBF0E080818F7D68
:1009400080830895E0E9F0E080818F7780830895C7
:10095000E0E9F0E080818F7D8083089584B58F7712
:1009600084BD089584B58F7D84BD0895CF93DF93B2
:1009700090E0FC01EA5FFE4F2491FC01EA5DFE4F2E
:100980008491882379F190E0880F991FFC01E65A41
:10099000FE4FA591B491FC01E05BFE4FC591D4914F
:1009A00061110CC09FB7F8948C91E22FE0958E23D3
:1009B0008C932881E223E8839FBF14C0623061F4E6
:1009C0009FB7F8948C91322F309583238C93E881D4
:1009D000E22BE8839FBF06C08FB7F894EC91E22B1F
:1009E000EC938FBFDF91CF9108951F93CF93DF9347
:1009F000282F30E0F901EA51FF4F8491F901EA5FB5
:100A0000FE4F1491F901EA5DFE4FC491CC23C9F069
:100A1000D62F811175DFEC2FF0E0EE0FFF1FE05BAA
:100A2000FE4FA591B4918FB7F894D11106C09C9157
:100A3000E12FE095E923EC9303C0EC91E12BEC93DB
:100A40008FBFDF91CF911F910895862F0C940B13C8
:100A500008951F920F920FB60F9211240BB60F92AA
:100A60002F933F934F935F936F937F938F939F93B6
:100A7000AF93BF93EF93FF936091CE0082EB91E031
:100A80008FD6FF91EF91BF91AF919F918F917F9101
:100A90006F915F914F913F912F910F900BBE0F90EF
:100AA0000FBE0F901F9018951092B200109269011E
:100AB000E1EBF0E0808185608083E0E7F0E0808119
:100AC0008160808308951092B20010926901E0E77E
:100AD000F0E080818E7F808308951092B2001092A2
:100AE0006901089578941F920F920FB60F92112406
:100AF0000BB60F922F933F934F935F936F937F9318
:100B00008F939F93AF93BF93EF93FF93809169016E
:100B10008F5F803518F48093690105C010926901D8
:100B200082EB91E09DD5FF91EF91BF91AF919F91A5
:100B30008F917F916F915F914F913F912F910F9086
:100B40000BBE0F900FBE0F901F901895CF93C82F1C
:100B500040E855E260E070E080E991E087DD21E067
:100B600041E060E971E08AE691E00E942C10811179
:100B700002C02A9AFFCF21E041E060E971E08AE6F5
:100B800091E00E942C1044EF51E060E070E08AE6B2
:100B900091E00E94050E6C2F8AE691E00E941410ED
:100BA00060E08AE691E00E94191062E08AE691E036
:100BB0000E941E10CF9108958AE691E00C945C107B
:100BC0000895813059F018F0823079F0089561E08D
:100BD00070E08AE691E00C941010089562E070E0F5
:100BE0008AE691E00C941010089563E070E08AE6C4
:100BF00091E00C9410100895009903C080E0E1CFBB
:100C00000895019903C081E0DCCF08950599F4CFE0
:100C100082E0D7CF08950F9320E737E14FE765E0F3
:100C200085E490E00E942E1140E061E086E490E0CF
:100C30000E946D1040E062E086E490E00E946D103A
:100C400040E063E086E490E00E946D1040E060E0E8
:100C500086E490E00E946D1040E06BE086E490E056
:100C60000E946D1040E064E086E490E00E946D1008
:100C700040E066E086E490E00E946D1040E067E0AE
:100C800086E490E00E946D1040E06AE086E490E027
:100C90000E946D1040E06CE086E490E00E946D10D0
:100CA00040E069E086E490E00E946D1086E40E94D6
:100CB0000F1187E40E940F1101E020E040E060E0A6
:100CC00088E490E00E94C81124E640E050E060E033
:100CD00088E490E00E947F1124E640E050E061E06B
:100CE00088E490E00E947F1140E064E087E490E0B7
:100CF0000E946D104EE452E062E086E40E94A21071
:100D000040ED52E063E086E40E94A21042E652E029
:100D100064E086E40E94A21040E050E065E086E4D2
:100D20000E94A2100F9108950F9360E070E0CB0134
:100D30000E941E1228E53BE140E065E085E490E07A
:100D40000E942E1122E344EB50E060E088E490E042
:100D50000E947F1122E340E050E061E088E490E0EF
:100D60000E947F1101E024E442E262E288E490E024
:100D70000E94C81160E771E181E090E00E941E12BC
:100D800023E349E96AEA88E490E00E94C81168EB2D
:100D900072E881E090E00E941E1220EA3FE04FE7F7
:100DA00064E085E490E00E942E1168E87AE881E032
:100DB00090E00E941E1220EA3FE048E561E085E4F1
:100DC00090E00E942E114BEC51E06DE373E086E45D
:100DD0000E94D81060E77EE881E090E00E941E1239
:100DE00028E53BE144E666E085E490E00E942E11B0
:100DF00028E53BE144E668E085E490E00E942E119E
:100E000028E53BE144E669E085E490E00E942E118C
:100E100040E066E086E490E00E946D1040E067E00C
:100E200086E490E00E946D1040E06AE086E490E085
:100E30000E946D1040E06CE086E490E00E946D102E
:100E400040E069E086E490E00E946D1060EB7DEA8E
:100E500081E090E00E941E1241E066E086E490E0AE
:100E60000E946D1041E067E086E490E00E946D1002
:100E700041E06AE086E490E00E946D1041E06CE0A1
:100E800086E490E00E946D1041E069E086E490E025
:100E90000E946D104CEB52E062E086E40E94A210CA
:100EA0002FEF8FE493EC215080409040E1F700C099
:100EB00000004EE452E062E086E40E94A2102FEFB0
:100EC0008FE493EC215080409040E1F700C0000097
:100ED0004CEB52E062E086E40E94A2102FEF8FE418
:100EE00093EC215080409040E1F700C000004EE4B8
:100EF00052E062E086E40E94A21060ED7BEF81E0A8
:100F000090E00E941E124AEF50E064E086E40E94E6
:100F1000A21068E877E082E090E00E941E1242E6AC
:100F200052E064E086E40E94A21068E57FE082E07F
:100F300090E00E941E1242E751E065E086E40E94C4
:100F4000A21060E17BE182E090E00E941E1240E08E
:100F500050E065E086E40E94A21068E37EE382E050
:100F600090E00E941E124CEB52E062E086E40E9488
:100F7000A2102FEF8FE493EC215080409040E1F7D6
:100F800000C000004EE452E062E086E40E94A2103D
:100F900068E673EB82E090E00E941E1286E40E94F5
:100FA0000F1168EA72ED82E090E00E941E1228E8BC
:100FB00033E14FE763E085E490E00E942E114EE4B8
:100FC00052E062E086E40E94A21040E066E086E41F
:100FD00090E00E946D1040E067E086E490E00E949F
:100FE0006D1040E06AE086E490E00E946D1040E001
:100FF0006CE086E490E00E946D1040E069E086E4D9
:1010000090E00E946D1060E376EE82E090E00E9436
:101010001E124BEC51E06DE373E086E40E94D810A1
:1010200060ED75EF82E090E00E941E1220E040E04B
:1010300060E088E490E00E94C81126E94AE550E0AB
:1010400060E088E490E00E947F1186E40E940F1126
:1010500020E737E140E063E085E490E00E942E1154
:1010600020E737E140E064E085E490E00E942E1143
:1010700020E737E140E061E085E490E00E942E1136
:1010800020E737E14AE067E085E490E00E942E1116
:1010900040E061E086E490E00E946D104AEF50E08D
:1010A00064E086E40E94A21043EB51E063E086E432
:1010B0000E94A21060EA7DEF82E090E00E941E1282
:1010C00040E061E086E490E00E946D1043EB51E067
:1010D00063E086E40E94A21042E652E064E086E407
:1010E0000E94A21086E40E940F1160E775E083E081
:1010F00090E00E941E1226E940E050E060E088E4A3
:1011000090E00E947F1126E940E050E061E088E431
:1011100090E00E947F1120E040E06EEE88E490E0D5
:101120000E94C81160E973E583E090E00E941E12FE
:1011300041E064E086E490E0D0D741E061E086E4FD
:1011400090E0CBD741E062E086E490E0C6D740ED86
:1011500052E063E086E4F6D700E020E040E06DED89
:1011600088E490E00E94C81168E177E683E090E0AF
:101170000E941E1241E064E087E490E0AED760E098
:101180007BE683E090E00E941E1240E064E087E48A
:1011900090E0A3D768EE7EE683E090E00E941E1206
:1011A00041E064E087E490E098D760ED72E783E087
:1011B00090E00E941E1240E064E087E490E08DD74A
:1011C00060ED72E783E090E00E941E1201E020E0F3
:1011D00040E06CEC88E490E00E94C81128EE33E017
:1011E0004FE766E085E490E00E942E1128E833E1A5
:1011F00049E168E085E490E00E942E1128E833E19F
:1012000049E168E085E490E00E942E1148EA52E04E
:1012100066E272E087E4CCD768EB76E783E090E0A3
:101220000E941E1241E064E087E490E056D760EA35
:101230007AE783E090E00E941E1240E064E087E4D9
:1012400090E04BD768E87EE783E090E00E941E12B2
:1012500041E064E087E490E040D760E772E883E033
:1012600090E00E941E1240E064E087E490E035D7F1
:1012700068E576E883E090E00E941E1241E064E0B9
:1012800087E490E02AD760E47AE883E090E00E9467
:101290001E1240E064E087E490E01FD760E172E94D
:1012A00083E090E00E941E1287E4B9D720E140E07D
:1012B0006CEC88E490E00E94C81128E833E14FE725
:1012C00061E085E490E0CAD741E06BE086E490E01D
:1012D00004D74BEC51E06DE373E086E469D72FEF60
:1012E00089E698E1215080409040E1F700C000007D
:1012F0004BED62E086E490E0F0D668E07DEB83E0C1
:1013000090E00E941E1286E48AD748EA52E066E224
:1013100072E087E44DD721E142E26AEA88E490E096
:101320000E94C81168E47CED83E090E00E941E12E8
:1013300087E475D723E343E369E988E490E00E94FA
:10134000C8114BEC51E06DE373E086E431D760EBFC
:101350007EE184E090E00E941E1286E460D724E4DF
:1013600044E468E888E490E00E94C81148EA52E04A
:1013700066E272E087E41CD768ED71E484E090E0F7
:101380000E941E1287E44BD74BEC51E06DE373E0F3
:1013900086E40ED725E545E567E788E490E0F8D7D1
:1013A00068E875EF84E090E00E941E1286E437D76B
:1013B00027E747E766E688E490E0EAD748EA52E0A4
:1013C00066E272E087E4F4D660E377E585E090E0DA
:1013D0000E941E1287E423D74BEC51E06DE373E0CB
:1013E00086E4E6D629E949E965E588E490E0D0D7C6
:1013F00060E47EE785E090E00E941E1286E40FD74D
:1014000048EA52E066E272E087E4D2D62AEA4AEA83
:1014100064E488E490E0BCD768E379EA85E090E092
:101420000E941E1287E4FBD62BEB4BEB63E388E4B0
:1014300090E0AED768E071EB85E090E0FFD74BEC31
:1014400051E06DE373E086E4B3D62CEC4BEB63E341
:1014500088E490E09DD768EC7EE086E090E0EED7EF
:1014600086E4DDD62EEE4CEC61E188E490E090D786
:1014700048EA52E066E272E087E49AD668E976E1EB
:1014800086E090E0DBD787E4CAD62FEF4CEC60E033
:1014900088E490E07DD741E064E087E490E01DD6E9
:1014A00060EE77E886E090E0C9D741E061E086E44D
:1014B00090E013D641E062E086E490E00ED62FEF94
:1014C00083ED90E3215080409040E1F700C00000A0
:1014D00040E061E086E490E000D64AEF50E064E04E
:1014E00086E430D643EB51E063E086E42BD62FEF61
:1014F0008BE792E9215080409040E1F700C0000066
:1015000042E652E064E086E41DD660E076ED86E0D7
:1015100090E094D728E53BE140E061E085E490E08D
:101520009DD628E53BE140E067E085E490E096D673
:1015300028E53BE14FE765E085E490E08FD620E0C9
:1015400040E060E088E490E023D742E652E064E0C7
:1015500086E4F8D531DB0F910895C5D9B0D52FEFCA
:1015600087EA91E6215080409040E1F700C00000FA
:101570008BE1ECDA2C9A28E53BE14FE765E085E466
:1015800090E06CD684B18E6184B90F98179A81B1BE
:10159000806981B9179A149A85E490E091D68111F7
:1015A00001C0299A38DB0699FECF6AEF70E080E02F
:1015B00090E05CD90699F7CF6AEF70E080E090E0A8
:1015C00055D90699F0CF6AEF70E080E090E04ED9EF
:1015D0000699E9CF48D78BE10FDBA6DBE3CFCF93AA
:1015E000DF9320E046E067E080E991E015D8CAE6A5
:1015F000D1E084EF91E0A0E0B0E08E839F83A887E4
:10160000B9878AE0E0E0F1E0AEE7B1E001900D9249
:101610008A95E1F71E8E82E08F8F1CA21DA2DF91BA
:10162000CF91089580E991E00C94B7020895CF938B
:10163000DF93EC010B96E6D2188219861A861F8278
:101640001886DF91CF910895FC0181850895FC01F2
:1016500082850895FC0117821286118634CA089586
:10166000F9CF089580ED860F8A3040F08FEB860F1A
:10167000863018F489EC860F089580E00895862F4F
:101680008F708A3010F4805D0895895C08951F93EF
:10169000CF93DF93EC01162F70E0759567957595E4
:1016A00067957595679575956795E9DF682FCE0104
:1016B000CCD9612FCE01E3DF682FCE01C6D9888156
:1016C000180F1883DF91CF911F9108951F93CF9327
:1016D000DF93EC01162F672FDADF612FCE01D7DF02
:1016E000DF91CF911F910895DF92EF92FF920F93B8
:1016F0001F93CF93DF93EC01D62E7A0118821A86BE
:1017000080E18A8369838E01055F1F4FC8016AD219
:1017100090E09C838B83FE82ED826AE3CE0195D9B3
:101720006D2DCE01B4DF60E1CE01B1DFB7016150B4
:101730007109CE01CBDFC80155D2682F70E0CE0110
:10174000C5DFC8014FD2682F660FCE01A0DFF12C94
:10175000C80148D2F81668F4EF2DF0E03696EE0F87
:10176000FF1FEC0FFD1F60817181CE01AFDFF3948D
:10177000EFCF68816195CE018ADF6DE0CE0165D93A
:101780006AE0CE0162D91F8281E08987CE018CD9BF
:10179000DF91CF911F910F91FF90EF90DF9008950F
:1017A0000F931F93CF93DF93FC012185222309F42C
:1017B00011C2162FEC0191D9EF818E2F90E08D3060
:1017C000910508F007C2FC01E05BFF4F5BC71A33CD
:1017D00009F000C281E08F8318861092B101FAC12E
:1017E000888581110EC0612FCE013CDFF0E18F9F13
:1017F000C00111249093B0018093AF0181E08887EC
:10180000E9C1612FCE012EDF2091AF013091B001EF
:10181000A901482BCA019093B0018093AF011886AB
:10182000298130E08217930741F492E09F839091E1
:10183000B101890F8093B101CDC1CE010BDFCAC1C7
:10184000888581110EC0612FCE010CDF50E1859F8C
:10185000C00111249093B0018093AF0181E088878B
:10186000B9C1612FCE01FEDE2091AF013091B001F0
:10187000F901E82BCF019093B0018093AF01188656
:101880002A8130E08217930791F42091B101280F4B
:101890002093B1018031910519F483E08F839AC1BF
:1018A0000397029708F096C18AE08F8393C1CE0117
:1018B000D1DE90C1888581110EC0612FCE01D2DEAC
:1018C000F0E18F9FC00111249093B0018093AF018C
:1018D00081E088877FC1612FCE01C4DE2091AF01F6
:1018E0003091B001A901482BCA019093B0018093B7
:1018F000AF0118862B813C81220F331F821793077B
:1019000059F49091B101890F8093B1018BE08F83DD
:10191000CE010B9664D15EC1CE019CDE5BC1888591
:1019200081110CC0612FCE019DDE8295807F1092C7
:10193000AF018093B00181E088874CC1612FCE0157
:1019400091DE2091AF013091B001F901F82BCF0168
:10195000F093B001E093AF01188684E08F8380910B
:10196000B101890F8093B10135C18885811114C0FF
:10197000612FCE0177DEF0E18F9FC001112420910D
:10198000AF013091B001822B932B9093B0018093E3
:10199000AF0181E088871EC1612FCE0163DE2091F7
:1019A000AF013091B001A901482BCA019093B00159
:1019B0008093AF0118864F5F5F4F2D813E814217A4
:1019C000530741F495E09F839091B101890F809373
:1019D000B10100C1CE013EDEFDC0888581110CC081
:1019E000612FCE013FDE8295807F1092AF01809300
:1019F000B00181E08887EEC0612FCE0133DE2091F7
:101A0000AF013091B001F901F82BCF01F093B00193
:101A1000E093AF01188686E08F838091B101890F32
:101A20008093B101D7C08885811114C0612FCE0188
:101A300019DEF0E18F9FC00111242091AF01309198
:101A4000B001822B932B9093B0018093AF0181E082
:101A50008887C0C0612FCE0105DE2091AF01309193
:101A6000B001A901482BCA019093B0018093AF0146
:101A700018862B813C818217930741F497E09F835E
:101A80009091B101890F8093B101A4C0CE01E2DD34
:101A9000A1C0888581110CC0612FCE01E3DD829544
:101AA000807F1092AF018093B00181E0888792C05F
:101AB000612FCE01D7DD2091AF013091B001F90146
:101AC000F82BCF01F093B001E093AF0118868CE0C2
:101AD0008F838091B101890F8093B1017BC088858C
:101AE000811114C0612FCE01BDDDF0E18F9FC001D7
:101AF00011242091AF013091B001822B932B909350
:101B0000B0018093AF0181E0888764C0612FCE016E
:101B1000A9DD6091AF017091B001682B7093B001A5
:101B20006093AF0118868091B101860F8093B10157
:101B30008E01055F1F4FC80158D0C80153D090E0F7
:101B40002B813C818217930718F087E08F8342C076
:101B50008BE08F833FC0888581110EC0612FCE013D
:101B600081DD20E1829FC00111249093B001809318
:101B7000AF0181E088872EC0612FCE0173DD2091F7
:101B8000AF013091B001282B3093B0012093AF0109
:101B900018868091B101819590E02817390719F4D2
:101BA00088E08F8317C0CE0155DD14C01D3019F4B5
:101BB00089E08F830FC0CE014DDD0CC01A3041F497
:101BC0001F8281E08A871986CE010E94630502C0C8
:101BD000CE0140DDDF91CF911F910F910895FC015F
:101BE00010820895FC0180810895DC019C91E92F09
:101BF000F0E0EE0FFF1FEA0FFB1F728361839F5F10
:101C00009C930895FC0110820895FC01468357833C
:101C1000608771870895FB013196695F7F4F80E08F
:101C200090E02191820F911DE617F707D1F791956A
:101C3000819591090895DC011D96EC911D97E13481
:101C400019F495961C9208959196EC9391971F968E
:101C50008C911F9790E0982F882750962C91509741
:101C6000820F911D93969C938E9392974E2F50E0E6
:101C7000FA01FA97E631F10508F082C0E35AFF4F06
:101C800001C55E961C925E9785E090968C93909726
:101C900081E094968C93089580FF0BC05E961C9211
:101CA0005E9789E090968C93909781E094968C93C0
:101CB000089581FF0BC05E961C925E9784E090961B
:101CC0008C93909781E094968C93089583709927D4
:101CD000892B09F465C05E961C925E978AE0909607
:101CE0008C93909781E094968C93089580FF0BC01D
:101CF0005E961C925E9787E090968C93909781E019
:101D000094968C93089581FF4BC05E961C925E97CB
:101D100082E090968C93909781E094968C930895AE
:101D200080FF0BC05E961C925E9788E090968C9325
:101D3000909781E094968C93089581FF31C05E96D0
:101D40001C925E9783E090968C93909781E0949696
:101D50008C9308955E961C925E9786E090968C9385
:101D6000909781E094968C9308955E961C925E976E
:101D70008BE090968C93909781E094968C93089545
:101D80005E961C925E9781E090968C9390979396C6
:101D90001C921E92929794968C93949795961C926F
:101DA0000895CF93DF93EC01BC01665F7F4F33DF73
:101DB000298930E0322F22274A89240F311D41E042
:101DC0002817390709F040E0842FDF91CF9108955B
:101DD0000F931F93CF93DF93EC0188819981DC01EE
:101DE000ED91FC910084F185E02D0995892B09F492
:101DF00063C060E070E0CB010E9436041E8D1111BB
:101E000010C088819981DC01ED91FC910284F385F9
:101E1000E02D09958A878E3701F78E8D8F5F8E8F23
:101E2000DCCF88819981DC01ED91FC910284F385FE
:101E3000E02D0995FE01E10FF11D82878E8D823024
:101E400079F08930C9F08130A1F59B859F3F89F1F8
:101E50001E8E88A31BA21AA28CA31DA280E04EC0D6
:101E60009C85963031F11E8E81E088A31BA21AA2B8
:101E70008CA31DA280E042C08B898F3E49F01E8E4C
:101E800081E088A31BA21AA28CA31DA280E036C009
:101E9000CE0187DF882329F01E8ECE01CCDE8CA1F7
:101EA0002DC01E8E91E098A31BA21AA29CA31DA276
:101EB00025C08F5F8E8F91CF8DA18823F1F00E9476
:101EC00004040A811B812C813D81DC01CB01801B34
:101ED000910BA20BB30B0E811F81288539858017CA
:101EE0009107A207B30748F01E8E18A21BA21AA2E0
:101EF00081E08CA31DA280E001C08CA1DF91CF9175
:101F00001F910F910895CF93DF93EC01888D882363
:101F100069F08DA1882351F060E070E0CB010E9450
:101F20003604CE0155DF8DA18111F6CF88819981CC
:101F3000DC01ED91FC910280F381E02D4AE050E05C
:101F4000BE016C5E7F4F09950E9404046A837B8307
:101F50008C839D83888D91E0811101C090E09DA3C9
:101F6000811106C06AE070E080E090E00E943604D3
:101F7000DF91CF910895CF93DF93EC016F8B598F51
:101F80004A8FBC016C5E7F4F46DE9B8F8C8FCE01EB
:101F9000BADFDF91CF91089540E050E0ECCF089593
:101FA0008F929F92AF92BF92CF92DF92EF92FF9269
:101FB0001F93CF93DF93EC016A017B010E9404041D
:101FC0004B015C01C114D104E104F10421F4CE8081
:101FD000DF80E884F984CE01FBDE182F811113C065
:101FE0000E940404DC01CB0188199909AA09BB09E4
:101FF000C816D906EA06FB0630F060E070E0CB01B7
:102000000E943604E8CF812FDF91CF911F91FF907E
:10201000EF90DF90CF90BF90AF909F908F900895FA
:10202000AB0163E0A8CF0895462F50E066E0A3CF50
:102030000895462F50E067E09ECF0895462F50E068
:1020400069E099DF68EC70E080E090E00C94360481
:1020500008956CE0A1CF08951F93CF93DF93EC0117
:10206000142F79836883442319F081E0888F01C09D
:10207000188E222379F0CE01ECDF40ED57E060E0CE
:1020800070E0CE018DDF68EC70E080E090E00E94AF
:10209000360402C084E088A31CA288A1843029F001
:1020A000893029F081E0812703C081E001C081E00F
:1020B000DF91CF911F9108956EE06ECF089587E66E
:1020C00090E083D278942FEF81EE94E0215080400D
:1020D0009040E1F700C0000008951F93CF93DF9375
:1020E000182FD62FC42F82EB91E0AEDA8111FBCFEF
:1020F0008DEB91E074DD6D2F70E08DEB91E075DD7F
:102100006C2F70E08DEB91E070DD4DE154E0612FBC
:1021100082EB91E0E9DA82EB91E096DA8111FBCF74
:102120004DE154E0612F82EB91E0DEDA82EB91E049
:102130008BDA8111FBCF82EB91E089DADF91CF91CD
:102140001F9108950F931F93CF93DF93D82FC62F1E
:102150008A0182EB91E078DA8111FBCF8DEB91E07F
:102160003EDD6C2F70E08DEB91E03FDDB8018DEB33
:1021700091E03BDD41E254E06D2F82EB91E0B4DA77
:1021800082EB91E061DA8111FBCF41E254E06D2FE7
:1021900082EB91E0A9DA82EB91E056DA8111FBCF74
:1021A00082EB91E054DADF91CF911F910F91089566
:1021B000EF92FF920F931F93CF93C82F7B018A0159
:1021C00082EB91E041DA8111FBCF8DEB91E007DDED
:1021D000B7018DEB91E009DDB8018DEB91E005DDF4
:1021E00044E254E06C2F82EB91E07EDA82EB91E0E6
:1021F0002BDA8111FBCF44E254E06C2F82EB91E0AB
:1022000073DA82EB91E020DA8111FBCF82EB91E06F
:102210001EDACF911F910F91FF90EF900895CF9309
:10222000C82F82EB91E010DA8111FBCF8DEB91E0AA
:10223000D6DC6FE370E08DEB91E0D7DC47E254E051
:102240006C2F82EB91E050DA82EB91E0FDD98111A5
:10225000FBCF82EB91E0FBD9CF910895EF92FF92F3
:102260001F93CF93DF93182FC62FD42F790182EBC2
:1022700091E0EAD98111FBCF8DEB91E0B0DCB701A1
:102280008DEB91E0B2DC6D2F70E08DEB91E0ADDC79
:102290004C2F50E04C505E4F440F551F612F82EB86
:1022A00091E022DA82EB91E0CFD98111FBCF82EB72
:1022B00091E0CDD9DF91CF911F91FF90EF900895DC
:1022C000CF93C82F82EB91E0BFD98111FBCF8DEB6B
:1022D00091E085DC60E070E08DEB91E086DC48E029
:1022E00054E06C2F82EB91E0FFD982EB91E0ACD906
:1022F0008111FBCF82EB91E0AAD9CF910895EF92A3
:10230000FF921F93CF93DF93D82F162F7A01C22FFE
:1023100082EB91E099D98111FBCF8DEB91E05FDCED
:10232000112319F0113039F00BC066E170E08DEB2C
:1023300091E05BDC05C061E270E08DEB91E055DC83
:10234000B7018DEB91E051DC6C2F70E08DEB91E0EB
:102350004CDC43EF53E06D2F82EB91E0C5D982EB6B
:1023600091E072D98111FBCF43EF53E06D2F82EBE7
:1023700091E0BAD982EB91E067D98111FBCF82EB72
:1023800091E065D9DF91CF911F91FF90EF90089573
:10239000FF920F931F93CF93DF93F82E162FD42F16
:1023A000C22F82EB91E050D98111FBCF8DEB91E0F0
:1023B00016DC612F70E08DEB91E017DC6D2F70E083
:1023C0008DEB91E012DC6C2F70E08DEB91E00DDC79
:1023D000013051F018F0023069F011C061E070E096
:1023E0008DEB91E002DC0BC062E070E08DEB91E0E0
:1023F000FCDB05C063E070E08DEB91E0F6DB49EFBC
:1024000053E06F2D82EB91E06FD982EB91E01CD904
:102410008111FBCF49EF53E06F2D82EB91E064D93E
:1024200082EB91E011D98111FBCF82EB91E00FD9C2
:10243000DF91CF911F910F91FF900895CF92DF927E
:10244000EF92FF926B017C012AD06C157D058E0501
:102450009F05D0F3FF90EF90DF90CF90089582EB2F
:1024600091E0E5C80895E1E8F0E08081886080832C
:10247000AFE6B0E08C9182608C9380818360808332
:1024800089EF80938800109289001092D2011092F7
:10249000D3011092D4011092D501789408956091DF
:1024A000D2017091D3018091D4019091D50108950A
:1024B0001F920F920FB60F9211248F939F93AF9399
:1024C000BF938091D2019091D301A091D401B0919A
:1024D000D5010196A11DB11D8093D2019093D30126
:1024E000A093D401B093D501BF91AF919F918F91EB
:1024F0000F900FBE0F901F9018951F920F920FB65E
:102500000F9211240BB60F928F939F93EF93FF932B
:102510009091FB018091FA01981769F0E091FA011E
:10252000EF5FEF71E093FA01F0E0E450FE4F80813D
:102530008093C60005C0E1ECF0E080818F7D808350
:10254000FF91EF919F918F910F900BBE0F900FBE57
:102550000F901F9018951F920F920FB60F92112493
:102560005E980F900FBE0F901F9018951F920F92BC
:102570000FB60F9211240BB60F928F939F93EF9388
:10258000FF939091D9018091D801981771F0E09153
:10259000D801EF5FEF71E093D8015E9AF0E0E65268
:1025A000FE4F80818093CE0005C0E9ECF0E0808191
:1025B0008F7D8083FF91EF919F918F910F900BBE44
:1025C0000F900FBE0F901F901895569A5E9810921C
:1025D000D9011092D8011092D7011092D6019923F7
:1025E00024F422E02093C8009F779093CD0080933D
:1025F000CC00E9ECF0E088E980838081806480830E
:10260000EAECF0E086E080838081806380838081D3
:102610008660808308952091D9012F5F2F7190915A
:10262000D8012917E1F3E22FF0E0E652FE4F808354
:102630002093D901E9ECF0E08081806280830895E5
:10264000A1E21A2EAA1BBB1BFD010DC0AA1FBB1FB6
:10265000EE1FFF1FA217B307E407F50720F0A21B28
:10266000B30BE40BF50B661F771F881F991F1A9495
:1026700069F760957095809590959B01AC01BD01BF
:10268000CF010895EE0FFF1F0024001C0BBE079022
:10269000F691E02D099410E0C4EBD0E003C0FE01F8
:0E26A000F1DF2196C53BD107D1F7F894FFCFAB
:1026AE007EFF06000100000000EF000000005E014A
:0C26BE00E300E000A9013E011201AA01A6
:00000001FF
